:020000040800F2
:100000006007002089010008510300084903000827
:100010004D03000831020008230D00080000000015
:10002000000000000000000000000000C5050008FE
:100030003502000800000000AD040008C1060008F9
:10004000A3010008A3010008A3010008A301000800
:10005000A3010008A3010008A3010008A3010008F0
:10006000A3010008A3010008A3010008A3010008E0
:10007000A3010008A3010008A3010008A3010008D0
:10008000A3010008A3010008A3010008A3010008C0
:10009000A3010008A3010008A3010008A3010008B0
:1000A000A3010008A3010008A3010008A3010008A0
:1000B00025070008A30100083D070008A301000868
:1000C000A3010008A3010008A3010008A301000880
:1000D000A3010008010B0008A3010008A301000808
:1000E000A3010008A3010008A301000800F002F822
:1000F00000F03AF80AA090E8000C82448344AAF188
:100100000107DA4501D100F02FF8AFF2090EBAE885
:100110000F0013F0010F18BFFB1A43F0010318473B
:10012000580F0000780F0000103A24BF78C878C13B
:10013000FAD8520724BF30C830C144BF04680C60ED
:10014000704700000023002400250026103A28BF35
:1001500078C1FBD8520728BF30C148BF0B60704739
:100160001FB51FBD10B510BD00F033F81146FFF7E5
:10017000F7FF00F023FE00F051F803B4FFF7F2FFA1
:1001800003BC00F0D0FD0000094880470948004743
:10019000FEE7FEE7FEE7FEE7FEE7FEE7FEE7FEE737
:1001A000FEE7FEE704480549054A064B7047000094
:1001B000C5060008ED00000860010020600700206F
:1001C000600300206003002070477047704770474D
:1001D0007047754600F028F8AE460500694653465C
:1001E00020F00700854618B020B5FFF7DBFFBDE81B
:1001F00020404FF000064FF000074FF000084FF08E
:10020000000B21F00701AC46ACE8C009ACE8C0091E
:10021000ACE8C009ACE8C0098D4670470446AFF3AE
:1002200000802046FFF7A9FF00487047FC0000202F
:1002300000BFFEE770472DE9F04102460025002689
:10024000002000230024002791F803C00CF00F05C4
:1002500091F803C01CF0100F03D091F802C04CEAD3
:10026000050591F800C0BCF1000F31D014680020E2
:100270002BE04FF0010C0CFA00F3B1F800C00CEACF
:1002800003069E4220D183004FF00F0C0CFA03F7B7
:10029000BC4305FA03FC4CEA040491F803C0BCF12A
:1002A000280F06D14FF0010C0CFA00FCC2F814C064
:1002B0000AE091F803C0BCF1480F05D14FF0010CE2
:1002C0000CFA00FCC2F810C0401C0828D1D31460FE
:1002D000B1F800C0BCF1FF0F34DD546800202EE0FF
:1002E00000F1080C4FF0010808FA0CF3B1F800C057
:1002F0000CEA03069E4221D183004FF00F0C0CFA4A
:1003000003F7BC4305FA03FC4CEA040491F803C06C
:10031000BCF1280F05D100F1080C08FA0CF8C2F85E
:10032000148091F803C0BCF1480F07D100F1080C0C
:100330004FF0010808FA0CF8C2F81080401C082899
:10034000CED35460BDE8F08100BFFEE700BFFEE7FA
:100350007047000070B5002100230F22C4780CB351
:10036000164C246804F4E064C4F5E064210AC1F189
:100370000403CA40447804FA03F18478144021430A
:1003800009010F4C0678A155047804F01F050124DB
:10039000AC4005786D114FF0E02606EB8505C5F8F9
:1003A000004109E0047804F01F050124AC40054D2C
:1003B0000678761145F8264070BD00000CED00E08F
:1003C00000E400E080E100E030B589B005460C466D
:1003D00001210C2000F07CF80121022000F068F8D7
:1003E00018208DF823000320ADF8200002208DF89E
:1003F000220008A92A48FFF71EFF18208DF82300C5
:10040000C020ADF8200002208DF8220008A9254860
:10041000FFF711FFADF81850ADF814400020ADF80B
:100420001A00ADF8160005A91F4800F017FB602060
:10043000ADF804000020ADF80A00ADF80C00012072
:10044000ADF8060001A9184800F0ACF901A916485A
:1004500000F0FEF901A9144800F05AFA01A9124867
:1004600000F0B0FA0121104800F08CF908210E4884
:1004700000F0E4F908210C4800F03CFA08210A4891
:1004800000F096FA0821084800F0DAFA012106483F
:1004900000F060F90121044800F068F909B030BDAE
:1004A000000C0140000801400004004070470000BB
:1004B00029B1064AD2690243044BDA6104E0034AD7
:1004C000D2698243014BDA6170470000001002409C
:1004D00029B1064A92690243044B9A6104E0034A37
:1004E00092698243014B9A617047000000100240FC
:1004F00030B500210022002400232D4D6D6805F049
:100500000C0121B1042905D0082923D105E0294D8A
:10051000056022E0274D05601FE0254D6D6805F45C
:100520007012234D6D6805F48034022505EB92426C
:100530001CB9214D554305600BE01D4D6D6815F448
:10054000003F03D01C4D5543056002E0194D554353
:10055000056002E0174D056000BF00BF144D6D68D7
:1005600005F0F0010909154D6B5C0568DD4045603B
:100570000F4D6D6805F4E061090A104D6B5C45682C
:10058000DD4085600A4D6D6805F46051C90A0B4D68
:100590006B5C4568DD40C560054D6D6805F4404104
:1005A000890B074D6B5CC568B5FBF3F5056130BD84
:1005B0000010024000127A0000093D0014000020E3
:1005C00024000020704710B500F002F810BD0000B4
:1005D000002100202E4A126842F480322C4B1A600F
:1005E00000BF2B4A126802F40030491C10B9B1F563
:1005F000A06FF6D1264A126812F4003F01D0012004
:1006000000E00020012842D1224A126842F0100284
:10061000204B1A601A46126822F003021A601A462A
:10062000126842F002021A60194A5268184B5A6066
:100630001A4652685A601A46526842F480625A60FA
:100640001A46526822F47C125A601A46526842F4E2
:10065000E8125A601A46126842F080721A6000BFAF
:100660000B4A126812F0007FFAD0094A526822F051
:100670000302074B5A601A46526842F002025A605F
:1006800000BF034A526802F00C02082AF9D17047F1
:100690000010024000200240042808D14FF0E02161
:1006A000096941F004014FF0E022116107E04FF0C9
:1006B000E021096921F004014FF0E0221161704747
:1006C0007047000010B51348006840F00100114960
:1006D000086008464068104908400E4948600846CE
:1006E00000680E4908400B4908600846006820F47D
:1006F000802008600846406820F4FE0048604FF4FF
:100700001F008860FFF75FFF4FF00060044908603A
:1007100010BD0000001002400000FFF8FFFFF6FED1
:1007200008ED00E04FF08040008A4FF08040008AE2
:1007300020F001004FF08041088270470448008893
:100740000348008820F0010001490880704700003C
:100750001008004021B1028842F08002028004E0CB
:1007600002884FF67F731A400280704721B10288D9
:1007700042F00102028004E002884FF6FE731A4044
:100780000280704731B1B0F8442042F40042A0F832
:10079000442005E0B0F84420C2F30E02A0F8442043
:1007A0007047000070B5002400220023058C4FF62E
:1007B000FE7635400584028C8388048B4FF68F7556
:1007C0002C40B51E2C400D882C43751E2A400D89E7
:1007D0002A434D882A43144DA8420BD0134DA842FA
:1007E00008D0134DA84205D0124DA84202D0124D98
:1007F000A84213D14FF6F7752A404D892A434FF688
:10080000FB752A408D882A434FF6FF652B404FF633
:10081000FF552B408D892B43CD892B438380048347
:10082000CD888586028470BD002C014000340140D3
:100830000040014000440140004801400A460021B8
:10084000018B4FF6F7731940114301837047000085
:1008500070B5002400220023058C4FF6EF7635405A
:100860000584028C8388048B48F6FF752C404FF674
:10087000FF452C400D884FF6FF7606EA05252C43F0
:100880004FF6DF752A400D8906EA05152A434D8883
:1008900006EA05152A43154DA84202D0144DA84278
:1008A0001DD14FF67F752A404D894FF6FF7606EA37
:1008B00005152A434FF6BF752A408D8806EA0515AF
:1008C0002A434FF6FF352B404FF2FF752B408D89A1
:1008D00006EA85052B43CD8906EA85052B438380EF
:1008E0000483CD880587028470BD0000002C014080
:1008F000003401400A460021018B4FF2FF7319407A
:100900004FF6FF7303EA0223194301837047000087
:1009100070B5002400220023058C4FF6FF66354099
:100920000584028C8388848B4FF68F752C404FF69C
:10093000FC752C400D882C434FF6FF552A400D893D
:100940004FF6FF7606EA05252A434D8806EA052577
:100950002A43154DA84202D0144DA8421DD14FF292
:10096000FF752A404D894FF6FF7606EA05252A4392
:100970004FF6FF352A408D8806EA05252A434EF6B4
:10098000FF752B404DF6FF752B408D8906EA051546
:100990002B43CD8906EA05152B4383808483CD88BC
:1009A0008587028470BD0000002C014000340140A6
:1009B0000A460021818B4FF6F7731940114381835A
:1009C0007047000070B5002200230024058C4EF60D
:1009D000FF7635400584038C8488828B48F6FF754A
:1009E0002A404FF6FF452A400D884FF6FF7606EA6B
:1009F00005252A434DF6FF752B400D8906EA05357E
:100A00002B434D8806EA05352B430B4DA84202D0F7
:100A10000A4DA84208D14BF6FF752C408D894FF640
:100A2000FF7606EA85152C4384808283CD88A0F862
:100A30004050038470BD0000002C01400034014090
:100A40000A460021818B4FF2FF7319404FF6FF7366
:100A500003EA0223194381837047000000220288C1
:100A60001D4B98420ED01D4B98420BD0B0F1804FD9
:100A700008D01B4B984205D01A4B984202D01A4B13
:100A8000984204D14FF68F731A404B881A43174B84
:100A9000984207D0164B984204D04FF6FF431A40B5
:100AA000CB881A4302808B8883850B8803850A4B89
:100AB00098420BD0094B984208D00E4B984205D073
:100AC0000D4B984202D00D4B984201D10B7A038610
:100AD0000123838270470000002C01400034014054
:100AE0000004004000080040000C004000100040DE
:100AF0000014004000400140004401400048014013
:100B000010B540F225511D4800F04AF810B31B48BB
:100B100000F002F9C4B21A48008810F4004F2BD13B
:100B20001748008810F4804F0CD00A2C03D0002006
:100B30001349088020E01248008840F40040104922
:100B4000088019E00D2C06D10D48008840F4804043
:100B50000B49088010E00A480088C0F30D000949DD
:100B60000C5407480088401C054908800846008846
:100B7000C72801DD0020088010BD000000380140BA
:100B80002C0000203400002021B1828942F4005260
:100B9000828104E082894DF6FF731A40828170479A
:100BA00070B502460024002300250020A1F5106640
:100BB0006A3E00D100BFC1F3421501F01F030126B8
:100BC00006FA03F3012D02D19689334006E0022D87
:100BD00002D1168A334001E0968A33400C12012676
:100BE00006FA04F41688344013B10CB1012000E079
:100BF000002070BDF0B5034600240026002500202B
:100C0000A1F510676A3F00D100BF1846C1F3421436
:100C100001F01F06012707FA06F5012C01D10C305F
:100C200004E0022C01D1103000E014301AB1076842
:100C30002F43076002E00768AF430760F0BD000084
:100C40002DE9F04786B005460E460024A24600BFB7
:100C5000A1460027B08900B100BF2F462C8A4CF670
:100C6000FF700440F08804432C82AC894EF6F310E8
:100C70000440B08831890843718908430443AC813A
:100C8000AC8A4FF6FF400440B0890443AC8201A80F
:100C9000FFF72EFC1F48874202D1DDF810A001E0CB
:100CA000DDF80CA0A88910F4004F08D00AEBCA00A8
:100CB00000EB0A1031684900B0FBF1F807E00AEBDD
:100CC000CA0000EB0A1031688900B0FBF1F864201B
:100CD000B8FBF0F004012009642101FB1089A88908
:100CE00010F4004F08D0322000EBC900B0FBF1F047
:100CF00000F00700044308E0322000EB09106421F3
:100D0000B0FBF1F000F00F0004432C8106B0BDE809
:100D1000F08700000038014001468888C0F30800D1
:100D2000704700BFFEE7014600BF704710B56FF087
:100D30000400FFF7B1FC0A4800680A49B0FBF1F073
:100D4000094908700846007800EB4001C1EBC0106B
:100D50004FF6FF7101EAC0000449088010BD000091
:100D60000000002000127A00280000202A00002045
:100D70000146114A12884A434FF0E0235A6100228B
:100D80009A611A46126942F001021A6100BF4FF0DF
:100D9000E022106910F0010F02D010F4803FF6D06D
:100DA0004FF0E022126922F001024FF0E0231A61B5
:100DB00000229A61704700002A00002010B5FFF75A
:100DC00081FCFFF7B3FF4FF4165000F005F9002146
:100DD00041F61F40FFF7F8FA0520FFF7C9FF01248D
:100DE000A9E0002000F0ACF84FF4FA70FFF7C0FF64
:100DF0004FF4FA70FFF7BCFF4FF4FA70FFF7B8FF3B
:100E00004FF4FA70FFF7B4FF002000F099F84FF4A8
:100E1000FA70FFF7ADFF4FF4FA70FFF7A9FF4FF438
:100E2000FA70FFF7A5FF4FF4FA70FFF7A1FF4FF438
:100E3000FA70FFF79DFF4FF4FA70FFF799FF4FF438
:100E4000FA70FFF795FF022000F07AF84FF4167061
:100E5000FFF78EFF002000F073F84FF4FA70FFF7F1
:100E600087FF4FF4FA70FFF783FF4FF4FA70FFF734
:100E70007FFF6420FFF77CFF012000F061F84FF452
:100E80001670FFF775FF002000F05AF84FF4FA7063
:100E9000FFF76EFF4FF4FA70FFF76AFF4FF4FA7036
:100EA000FFF766FF4FF4FA70FFF762FF012000F0D2
:100EB00047F84FF41670FFF75BFF002000F040F892
:100EC0004FF4FA70FFF754FF022000F039F84FF4A6
:100ED0001670FFF74DFF002000F032F84FF4FA7063
:100EE000FFF746FF4FF4FA70FFF742FF4FF4FA7036
:100EF000FFF73EFF4FF4FA70FFF73AFF002000F0D3
:100F00001FF84FF4FA70FFF733FF4FF4FA70FFF752
:100F10002FFF4FF4FA70FFF72BFF4FF4FA70FFF733
:100F200027FF032000F00CF84FF41670FFF720FFA6
:100F30000020FFF71DFF012C3FF453AF002010BD30
:100F400080B94FF4FA51234A118041F28831121DC1
:100F500011804FF4FA511F4A0C32118041F288314E
:100F6000121F1180012811D14FF4FA51194A121D94
:100F7000118041F28831121F11804FF4FA51154A45
:100F80000C32118041F28831121F1180022811D1D8
:100F900041F288310F4A121D11804FF4FA51121F8D
:100FA000118041F288310B4A0C3211804FF4FA5112
:100FB000121F118003280BD14FF6FF71054A121D35
:100FC0001180121F1180034A0C321180121F1180F0
:100FD000704700003404004010B586B0044601217B
:100FE00044F20400FFF774FA4FF40070ADF81400F7
:100FF00003208DF8160018208DF8170005A91C484D
:10100000FFF719F94FF48060ADF8140004208DF853
:10101000170005A91648FFF70EF925208DF80000E6
:1010200003208DF801008DF8020001208DF80300E7
:101030006846FFF78FF901940020ADF80800ADF87D
:101040000A00ADF80C00ADF810000C20ADF80E0051
:1010500001A90848FFF7F4FD012240F22551054897
:10106000FFF7C8FD01210348FFF78EFD06B010BD54
:1010700000080140003801409810000800000020DE
:101080003400000028010008CC10000834000020C3
:101090002C0700004401000800A24A0400000000E0
:1010A0000000000001020304060708090000000018
:1010B00001020304010203040607080902040608EA
:0C10C00000000000000000000000000024
:04000005080000ED02
:00000001FF
