:020000040800F2
:1000000028090020ED0100080F1500080715000859
:100010000B150008EF130008E31C000800000000A7
:10002000000000000000000000000000B116000801
:10003000F31300080000000099150008AD17000830
:10004000070200080702000807020008070200086C
:10005000070200080702000807020008070200085C
:10006000070200080702000807020008070200084C
:10007000070200080702000807020008070200083C
:10008000070200080702000807020008070200082C
:10009000070200080702000807020008070200081C
:1000A000070200080702000807020008070200080C
:1000B00007020008070200080702000807020008FC
:1000C00007020008070200080702000807020008EC
:1000D0000702000811180008070200082D18000880
:1000E00007020008070200080702000807020008CC
:1000F00007020008070200080702000807020008BC
:1001000007020008070200080702000807020008AB
:10011000070200080702000807020008070200089B
:10012000070200080702000807020008070200088B
:1001300000F002F800F04AF80AA090E8000C8244AF
:100140008344AAF10107DA4501D100F03FF8AFF28C
:10015000090EBAE80F0013F0010F18BFFB1A43F0A5
:1001600001031847902B0000B02B0000103A24BF69
:1001700078C878C1FAD8520724BF30C830C144BF0C
:1001800004680C607047000000230024002500264E
:10019000103A28BF78C1FBD8520728BF30C148BFEA
:1001A0000B607047662902F0D884642900F04C8007
:1001B000002070471FB500F0D7FB0400002000218D
:1001C00001F0ACFFE0601FBD10B510BD00F0E8FC11
:1001D0001146FFF7EFFF01F0BFFE00F006FD03B48C
:1001E000FFF7F2FF03BC01F099FD000009488047CA
:1001F00009480047FEE7FEE7FEE7FEE7FEE7FEE709
:10020000FEE7FEE7FEE7FEE704480549054A064B20
:1002100070470000B11700083101000828030020D2
:10022000280900202805002028050020704700002C
:100230000FB4044910B503AA029800F05BFB10BC90
:100240005DF814FB340000202DE9F041064600243F
:1002500010687529314616A511D0AFF3008000282B
:1002600003DAC0F1000013A507E031688A0701D561
:1002700011A502E0490704D510A5012401E0AFF360
:10028000008000210A2306F1240707E0B0FBF3F207
:1002900003FB1200303078541046491C0028F5D179
:1002A00023462A463046BDE8F04100F0B6B80000CB
:1002B000000000002D0000002B00000020000000C6
:1002C0002DE9F0474FF0000A89460446C0F820A007
:1002D0002046E1688847002876D0252806D0D4E952
:1002E00001219047206A401C2062F1E7E168204626
:1002F00000258847C4F81CA006460027C4F818A0AB
:100300002A2E09D0304601F002FD38B304EB8708ED
:10031000303EC8F8186019E059F8041B204604EB79
:1003200087029161E1688847012F064618D1E0698C
:10033000002820DA25F020051DE0D8F8180000EB91
:10034000800006EB40003038C8F818002046E1680D
:100350008847064601F0DBFC0028EED1012F0AD0C9
:100360002E2E08D12046E16888477F1C0646022FC2
:1003700045F02005C4DBA069002803DA404245F0BF
:100380000105A061E80701D025F01005B6B1A6F17E
:100390004100192802D8203645F400654A46314606
:1003A000204625604D46FFF7FDFE58B1012806D0D6
:1003B000ED1D25F0070000F1080989E704E005F1CB
:1003C000040985E730468AE7206ABDE8F0874FF0E8
:1003D00000020429C0F0128010F0030C00F09E828D
:1003E000CCF1040CBCF1020F18BF00F8012BA8BF20
:1003F00020F8022BA1EB0C0100F090BA5FEAC17C5F
:1004000024BF00F8012B00F8012B48BF00F8012B96
:10041000704770477047704770472DE9F0470D46A9
:1004200099469246044600F124080168880604D5DE
:10043000E06921F01001216000E00120A84202DD06
:10044000A0EB050700E00027A16907EB050202EB1E
:100450000900A1EB0000A0612078C00602D420466C
:10046000AFF30080002608E0D4E901211AF8060065
:100470009047206A401C761C20624E45F4DB2078B1
:10048000C0060AD52046AFF3008006E0D4E901217A
:1004900030209047206A401C2062381EA7F10107D7
:1004A000F4DC07E0D4E9012118F805009047206A40
:1004B000401C2062281EA5F10105F3DC2046AFF3A5
:1004C00000802078000602D50220BDE8F0870120D8
:1004D000FBE770472DE9FF4F0C461E464FF0FF37F4
:1004E0008BB0D2E90001DDF860800A908A46C1F342
:1004F0000A5505B93D46002108464FF00000BAF103
:10050000000F00F4400005DA00EB80004FF44001DA
:1005100001EA50004FEA9059B9F1010F00DDB946E8
:100520000A9850EA4A000ED044F61050A5F2FF3562
:1005300045432F14B8F1000F1ED07542291E1EDD51
:10054000C9F100021CE0B8F1010F4FF0000001D02A
:10055000302103E0F24305E02154401CB042FBDBB4
:1005600030460022002121540B99C1F80880C1E9CE
:1005700000200FB0BDE8F08FBD1B6D1CDEE74A46C2
:1005800000DA694206A800F091FA06AB07CB03AB8C
:1005900007C350460A9900F06FFB8DE80700A0F5ED
:1005A00000501F3800900398002D09DD42F21F0112
:1005B0004A46084403A90390684600F0CEFD08E0CF
:1005C000A0F500504A461F3803A90390684600F082
:1005D000D8FD8DE807000004000C03D04FF0FF3079
:1005E000410800E01046B8F1000F03D0002200924D
:1005F00015461FE0751E06D400F0BAF902F130026C
:1006000062556D1EF8D5B3460122084302D0002280
:100610007F1C04E02078302801D100227F1E002AB0
:10062000099787D01DE0112D07DA00F0A1F93032CB
:1006300062556D1C50EA0102F5D108430FD100212B
:10064000681E05E0235C625C6354491C2254401E12
:100650008142F7DBAB46A81B401E099001E00098E1
:1006600048B1002004F80B000B98099AC0F80880E4
:10067000C0E9002B7DE711264FF000085AE72DE96D
:10068000F04F88460446D21D22F0070191B0D1E90F
:100690000001CDE90A0101F026FB02460B98C00FCC
:1006A00001D02D2007E02068810701D52B2002E032
:1006B000202101EAC000032A099001D0072A05DBA6
:1006C00003464146204600F0B1F90FE1207880064C
:1006D00001D5E06900E00620B8F1650F814606D03B
:1006E000B8F1660F18D0B8F1670F72D132E0002070
:1006F000B9F1110F009001DB112301E009F10103B1
:100700000AAA01A90CA8FFF7E5FEDDE90C70002696
:1007100009F10105834648E001204B4600904FF067
:1007200000470AAA01A90CA8FFF7D4FEDDE90DB025
:100730000C995D46002618B909F1010001EB00058E
:10074000B9EB050003D4C0F1FF3609F10105A5EBB3
:1007500009002BE0B9F1010F01DA4FF00109002087
:10076000B9F1110F0090484601DD112300E0034666
:100770000AAA01A90CA8FFF7ADFEDDE90C704D46F1
:1007800000268346207800070AD4AB4500DA5D4690
:1007900001A8012D04DD411911F8011C302907D0F1
:1007A0004F4502DA17F1040F04DA0120824610E007
:1007B0006D1EEEE7002F02DCED1B3E4403E0781CCB
:1007C000A84200DD0546A7EB060000F1010A4FF044
:1007D00000472078000703D4AA4501DB4FF0FF3A19
:1007E0000021B7F1004F0DF143088DF8431023D0DD
:1007F00002202B23002F01DA7F422D234FF00A0C19
:10080000011EA0F1010000DC4FB197FBFCF10CFBD5
:1008100011720F4602F1300208F8012DF0E7A8F13D
:10082000010003702188090501D5452100E06521FB
:10083000A0F1010800F8011C09980FA9A1EB080715
:1008400007F1070700B1012000EB050101EBEA7099
:10085000A1693844A1EB0000A0F10100A06120785B
:10086000C00602D42046AFF30080099830B1D4E925
:1008700001219047206A00F1010020622078C00623
:1008800020D52046AFF300801CE0002E04DBB345EA
:1008900002DD01A8805D00E03020D4E9012190470D
:1008A000206A761C401CBAF1010A20620AD100F0CD
:1008B0005BF8C0680168405CD4E901219047206A78
:1008C000401C2062281EA5F10105DEDC07E0D4E90A
:1008D000012118F8010B9047206A401C2062381E45
:1008E000A7F10107F3DC2046AFF30080022011B02E
:1008F00040E60000074B70B50D467B4400F083F8DE
:100900000446284600F044F910B14FF0FF3070BDA6
:10091000204670BD3F1600004FF0000200B51346A0
:1009200094469646203922BFA0E80C50A0E80C500F
:10093000B1F12001BFF4F7AF090728BFA0E80C50C0
:1009400048BF0CC05DF804EB890028BF40F8042BB9
:1009500008BF704748BF20F8022B11F0804F18BF26
:1009600000F8012B7047000000487047E4020020A7
:1009700030B5B0F10A024FEA900E71F100034EEA71
:10098000817EB0EB0E0061EB91014FEA101E4EEA42
:10099000017E10EB0E0041EB11114FEA102E4EEAD2
:1009A000016E10EB0E0041EB11214FEA104E4EEAA2
:1009B000014E10EB0E0041EB1141401841F10001D6
:1009C0004FEAD00040EA41704FEAD10110EB8005B8
:1009D0004FEA810444EA907444EB01046D1944EB3E
:1009E0000404521BA3414FF0000348BF0A3200D554
:1009F00030BD401C41F1000130BD000001694A1CBE
:100A000002610878704700B58FB0CDE9013100214F
:100A1000059105497944CDE9031011466846FFF771
:100A20004FFC0FB000BD0000E5FFFFFF2DE9F041D6
:100A30001F46044603260168072A01F4006004DB10
:100A400008B116A505E016A503E008B115A500E05C
:100A500015A521F010002060A069C01EA0610FB193
:100A6000401EA0612046AFF300804FB1D4E90121C0
:100A700038469047206A401C2062C01C206206E075
:100A8000206AFAE7D4E9012115F8010B9047761E98
:100A9000F8D22046AFF30080BDE8F0814E414E0011
:100AA0006E616E00494E4600696E66002DE9F047A2
:100AB000814616468AB035487844D0E900238068DC
:100AC0000092CDE90130314878440C38D0E9022356
:100AD000006903924FF03702CDE9043041F69B30B4
:100AE000014491FBF2F0A0F1800502FB10141B3CC5
:100AF00002D56442012000E00020DFF890A080468B
:100B00000027FA44AAF1C60A0DE0E00709D03246F0
:100B1000684607EB47010AEB810100F032FB8DE8E4
:100B2000070064107F1C002CEFD1184F7F44B43FA6
:100B300017E0E80713D007EB04100DF1180A90E84E
:100B40000E00AAE80E00C068F04201D19819089082
:100B5000324606A903A800F014FB03AB07C36D10CF
:100B6000641C002DE5D132466946B8F1000F03A898
:100B700002D000F0F2FA01E000F003FBC9E9000145
:100B8000C9F808200AB0BDE8F08700002022000064
:100B9000007B00F08000704700487047C4020020CE
:100BA0007546FFF7F9FFAE4605006946534620F04B
:100BB0000700854618B020B5FFF726FBBDE82040AA
:100BC0004FF000064FF000074FF000084FF0000B09
:100BD00021F00701AC46ACE8C009ACE8C009ACE8BC
:100BE000C009ACE8C0098D4670470446AFF30080E9
:100BF0002046FFF7F4FA00004FF0013C50F8042BB8
:100C000051F8043B9A4221D1A2EB0C03934313EA1F
:100C1000CC1317D150F8042B51F8043B9A4215D14C
:100C2000A2EB0C03934313EACC130BD150F8042B23
:100C300051F8043B9A4209D1A2EB0C03934313EA07
:100C4000CC13DBD04FF00000704700BFD01A01BAC0
:100C5000B1FA81F101F0180122FA01F0CB40C1F1A3
:100C60002001DBB2C0B2C01A2CFA01F3D11A9143B1
:100C700011EAC311E6D170475FEA400C08BF91F05A
:100C8000000F4FEA8C234FEAC12243EA51514FEA49
:100C90001C5018BF00F5F0404FEA300018BF41F07B
:100CA00000415FEA6C5C00F02980BCF1FF3F08BFA7
:100CB00040F080407047130C06BF12044FF0100C38
:100CC0004FF0000C130E04BF12020CF1080C130FAE
:100CD00004BF12010CF1040C930F04BF92000CF13D
:100CE000020CD30F04BF52000CF1010C11464FF05F
:100CF0000002A0F11F00A0EB0C00704711F0004FA4
:100D000008BF704731F000413FF4D5AF0B0C06BF70
:100D100009044FF0100C4FF0000C0B0E04BF090239
:100D20000CF1080C0B0F04BF09010CF1040C8B0F24
:100D300004BF89000CF1020CCB0F04BF49000CF179
:100D4000010CCCF12003A0EB0C0022FA03F302FA11
:100D50000CF241EA030100F10100704720F07F4CE2
:100D600080EA030023F07F47ACEB070303F57C53D5
:100D700000F0004003F1FF032DE980494FEA154BD5
:100D800009B44FEA144325EA0B4E24EA03480FF254
:100D9000042606EB132749083E785FEA320203FB7C
:100DA0000667C7F5000707FB06F64FEA54374FEA18
:100DB000D64606F1020607FB066CCCF1005C4FEA52
:100DC0001C472CEA074C07FB06F40CFB06F504EB6A
:100DD00015464FEA961634BF00204FF000404FEA08
:100DE000D13706FB07FC4FEA1C4C0CFB0BF7D21B60
:100DF00003FB0CF761EB07010CFB0EF7B0EB0740B0
:100E000072EB17420CFB08F734BFA2EB0742B2EBC0
:100E1000074261EB17414FEA0C444FEA910706FB8A
:100E200007FC4FEA1C4C0CFB0BF7B0EBC74072EB16
:100E3000573203FB0CF734BFA2EBC742B2EBC742F9
:100E400061EB57310CFB0EF7B0EBC70072EB57723A
:100E50000CFB08F734BFA2EBC702B2EBC70261EB91
:100E60005771039F4FEA816141EA921104EBCC0470
:100E70004FEAD1374FEA826206FB07FC42EA901242
:100E80004FEA80604FEA1C4C0CFB0BF7D21B03FBB4
:100E90000CF761EB07010CFB0EF7B0EB074072EBB0
:100EA00017420CFB08F734BFA2EB0742B2EB074234
:100EB00061EB17414FEA8C554FEA910704EB9C24F4
:100EC00006FB07FC4FEA1C4C0CFB0BF7B0EBC740D2
:100ED00072EB573203FB0CF734BFA2EBC742B2EB05
:100EE000C74261EB57310CFB0EF7B0EBC70072EB5A
:100EF00057720CFB08F734BFA2EBC702B2EBC70274
:100F000061EB577115EB4C254FEA816141EA921173
:100F10004FEA82624FEAD13742EA901206FB07FCA1
:100F200044F100044FEA80604FEA1C4C0CFB0BF7C5
:100F3000D21B03FB0CF761EB07010CFB0EF7B0EBC8
:100F4000074072EB17420CFB08F734BFA2EB0742D5
:100F5000B2EB074261EB174115EB1C154FEA8131EB
:100F600041EA92414FEA823242EA90424FEA8030AF
:100F70004FEA0C7644F1000448EA03434EEA0B487A
:100F80004FF0000EB2EB080C71EB030724BF624672
:100F900039464EEB0E0E4FF0000B001852414941FE
:100FA0004BEB0B0BB2EB080C71EB03077BF1000B67
:100FB00024BF624639464EEB0E0E4FF0000B001870
:100FC000524149414BEB0B0BB2EB080C71EB0307A1
:100FD0007BF1000B24BF624639464EEB0E0E51EA00
:100FE000020718BF46F0010616EB0E7655F1000217
:100FF00054F1000103D5BDE88901BDE80088BDE8D2
:101000008901BDE80048B619524141EB0101A3F145
:101010000103704780807F7E7D7C7B7A797877764C
:1010200076757473727171706F6E6E6D6C6C6B6AC5
:101030006A69686867666665646463636261616063
:10104000605F5F5E5E5D5D5C5C5B5B5A5A595958E0
:10105000585757565655555554545353525252514A
:10106000515050504F4F4F4E4E4D4D4D4C4C4C4BA0
:101070004B4B4A4A4A4949494848484747474746E7
:101080004646454545444444444343434342424223
:1010900042414141002B26D4770021D01CB54FEAB4
:1010A000370703B44FF010004FF010014FF000006D
:1010B0000FBCBDE810400BF1010BBBF1010F08BFE5
:1010C0005FEA170722BF12F1010211F101014FF08F
:1010D000004143F1000300F0004043EA0000704784
:1010E000F9D35708DAE746EA064613F1400F4FEA0C
:1010F00016461FDD13F1200FDFBF16430A460021FD
:1011000020335B42C8D0C3F1200746EA064602FA04
:1011100007F74FEA164646EA0706C3F1200722FA08
:1011200003F201FA07F721FA03F14FF0000342EA54
:101130000702B1E746EA020646EA06464FEA1646C5
:1011400046EA0106BCBF46EA0646360C4FF00003ED
:101150004FF000024FF000019EE72DE9C048934692
:1011600030B491E8380007C831EA400C48BF34EA8F
:10117000430C03D5FFF7F2FDFFF78CFFF0BCBDE891
:1011800000882DE9C048934630B491E8380007C87C
:1011900010F0804F08BF13F0804F03D100F005F826
:1011A000FFF778FFF0BCBDE8008820F07F4780EAB9
:1011B000030023F07F4C07EB0C03A3F57C5300F0F6
:1011C0000040A3F1FE0392F0000F00F0B38095F011
:1011D000000F00F077802DE901494FEA11404FEAF6
:1011E000144621EA004800FB06FC24EA064708FBF7
:1011F00006F607FB08F800FB07F718EB06484CEB70
:10120000164C4FEA124B18EB07484FEA15464CEBC9
:10121000174022EA0B4E0BFB06FC25EA06470EFBA5
:1012200006F607FB0EFE0BFB07F71EEB064E4CEB1C
:10123000164C4FF000061EEB074E4CEB174B18EB0D
:101240000B0840F1000018EB0E0B58EB000840F1C2
:1012500000008F1A4FF000013CBFC943661B14BF4A
:10126000B5EB040C00213CBFC943F61B4FEA174401
:101270004EEA8E0E27EA04454FEA1C4704FB07623C
:101280002CEA074C05FB07F70CFB05F604FB0CFCEE
:1012900016EB074642EB174216EB0C4642EB1C429C
:1012A0001BEB060658EB0202414146EA9E0601D5B9
:1012B000BDE80189B619524141EB0101A3F10103D7
:1012C000BDE801894FEA14454FEA114724EA054673
:1012D00021EA074C05FB07F406FB07F70CFB06F1B8
:1012E00005FB0CFC11EB074144EB17444FEA124796
:1012F00011EB0C4144EB1C4422EA074C05FB07F2BE
:1013000006FB07F70CFB06F605FB0CFC16EB074685
:1013100042EB174216EB0C4642EB1C456A1854F19F
:10132000000148BF7047B619524141EB0101A3F1DA
:101330000103704795F0000F37D04FEA11424FEA92
:10134000144721EA024624EA074C02FB07F106FB98
:1013500007F70CFB06F402FB0CFC14EB074441EB13
:1013600017414FEA154714EB0C4441EB1C4125EAA9
:10137000074C02FB07F506FB07F70CFB06F602FB22
:101380000CFC16EB074645EB174516EB0C4645EBF8
:101390001C42121951F1000148BF7047B619524161
:1013A00041EB0101A3F1010370474FEA14454FEAF5
:1013B000114724EA054621EA074C05FB07F106FB25
:1013C00007F70CFB06F24FF0000605FB0CFC12EBD6
:1013D000074241EB174112EB0C4251EB1C4148BF55
:1013E0007047921841EB0101A3F10103704700BF60
:1013F000FEE770472DE9F041024600250026002057
:1014000000230024002791F803C00CF00F0591F889
:1014100003C01CF0100F03D091F802C04CEA050580
:1014200091F800C0BCF1000F31D0146800202BE00F
:101430004FF0010C0CFA00F3B1F800C00CEA0306FF
:101440009E4220D183004FF00F0C0CFA03F7BC43EF
:1014500005FA03FC4CEA040491F803C0BCF1280F20
:1014600006D14FF0010C0CFA00FCC2F814C00AE0DF
:1014700091F803C0BCF1480F05D14FF0010C0CFAF4
:1014800000FCC2F810C0401C0828D1D31460B1F889
:1014900000C0BCF1FF0F34DD546800202EE000F1E5
:1014A000080C4FF0010808FA0CF3B1F800C00CEA80
:1014B00003069E4221D183004FF00F0C0CFA03F774
:1014C000BC4305FA03FC4CEA040491F803C0BCF1E8
:1014D000280F05D100F1080C08FA0CF8C2F81480A6
:1014E00091F803C0BCF1480F07D100F1080C4FF090
:1014F000010808FA0CF8C2F81080401C0828CED366
:101500005460BDE8F08100BFFEE700BFFEE7704712
:1015100070B5002100230F22C4780CB3164C246848
:1015200004F4E064C4F5E064210AC1F10403CA4094
:10153000447804FA03F184781440214309010F4CE4
:101540000678A155047804F01F050124AC40057805
:101550006D114FF0E02606EB8505C5F8004109E066
:10156000047804F01F050124AC40054D067876117F
:1015700045F8264070BD00000CED00E000E400E0FE
:1015800080E100E002490143024A11607047000017
:101590000000FA050CED00E07047000029B1064A92
:1015A000D2690243044BDA6104E0034AD269824300
:1015B000014BDA61704700000010024029B1064A71
:1015C00092690243044B9A6104E0034A92698243A0
:1015D000014B9A61704700000010024030B50021B5
:1015E0000022002400232D4D6D6805F00C0121B16F
:1015F000042905D0082923D105E0294D056022E002
:10160000274D05601FE0254D6D6805F47012234DD0
:101610006D6805F48034022505EB92421CB9214D1A
:10162000554305600BE01D4D6D6815F4003F03D078
:101630001C4D5543056002E0194D5543056002E01D
:10164000174D056000BF00BF144D6D6805F0F00137
:101650000909154D6B5C0568DD4045600F4D6D68EF
:1016600005F4E061090A104D6B5C4568DD4085605A
:101670000A4D6D6805F46051C90A0B4D6B5C4568F5
:10168000DD40C560054D6D6805F44041890B074D8F
:101690006B5CC568B5FBF3F5056130BD0010024019
:1016A00000127A0000093D001800002028000020E8
:1016B000704710B500F002F810BD000000210020B6
:1016C0002E4A126842F480322C4B1A6000BF2B4A1B
:1016D000126802F40030491C10B9B1F5A06FF6D1C0
:1016E000264A126812F4003F01D0012000E00020D9
:1016F000012842D1224A126842F01002204B1A609F
:101700001A46126822F003021A601A46126842F062
:1017100002021A60194A5268184B5A601A465268F7
:101720005A601A46526842F480625A601A465268F9
:1017300022F47C125A601A46526842F4E8125A6047
:101740001A46126842F080721A6000BF0B4A126893
:1017500012F0007FFAD0094A526822F00302074BC8
:101760005A601A46526842F002025A6000BF034AA9
:10177000526802F00C02082AF9D1704700100240AA
:1017800000200240042808D14FF0E021096941F00F
:1017900004014FF0E022116107E04FF0E0210969F8
:1017A00021F004014FF0E022116170477047000002
:1017B00010B51348006840F0010011490860084660
:1017C0004068104908400E494860084600680E49C4
:1017D00008400B4908600846006820F48020086033
:1017E0000846406820F4FE0048604FF41F008860FF
:1017F000FFF75FFF4FF000600449086010BD000074
:10180000001002400000FFF8FFFFF6FE08ED00E0C8
:1018100010B540F22551044800F0A3F918B1024870
:1018200000F05AFAC4B210BD0038014010B540F2C1
:101830002551B74800F095F900282BD0B44800F0A6
:101840004BFAC4B240F22551B14800F06FF9B148EB
:101850000078052879DDAF4800782A285BDAAD48A2
:101860000078032190FBF1F201FB120098B9AA481D
:10187000007800EB4001A94808440480A54800789E
:10188000401CA4490870A64800786040A549085C3F
:10189000A34908703BE19F480078032190FBF1F2D7
:1018A00001FB120001281DD19B48007800EB40018C
:1018B0009A480844008800EB042081B296480078DA
:1018C00000EB400295481044018092480078401C8B
:1018D000904908709248007860409249085C9049AD
:1018E000087014E18C48007800EB40018B480844F4
:1018F000847089480078401C8749087085480078C2
:10190000401C844908708648007860408549085C1E
:1019100083490870FBE07F4800782A3805286ED29A
:10192000DFE800F0031429394E007C48801F44850D
:1019300078480078401C7749087079480078604002
:101940007849085C764908705AE05AE07348801F6D
:10195000408D00EB04207149891F48856D4800784F
:10196000401C6C4908706E48007860406D49085C06
:101970006B49087044E06948801F84856548007899
:10198000401C644908706648007860406549085CFE
:101990006349087034E06148801F808D00EB0420AB
:1019A0005E49891F88855B480078401C594908704A
:1019B0005B48007860405B49085C594908701FE04B
:1019C0005648801F80F82E4090F82E005449097820
:1019D000884207D154480088401C5349088000F0D1
:1019E0009FF904E02F214D48801FFEF7F0FC0020F6
:1019F0004B490870474908704749087000BF00BF4D
:101A000085E04448007806287FD2DFE800F0031B19
:101A100033435868542C0FD14048801F04703D4810
:101A20000078401C3B4908703D48007860403D49C3
:101A3000085C3B49087004E00020364908703849CA
:101A4000087063E02C2C0FD13448801F447031485B
:101A50000078401C2F4908703148007860403149B7
:101A6000085C2F49087004E000202A4908702C49BE
:101A700008704BE02948801F448026480078401CAD
:101A8000244908702648007860402649085C2449AB
:101A900008703BE02148801F408800EB04201F496C
:101AA000891F48801B480078401C1A4908701C4850
:101AB000007860401B49085C1949087026E0174807
:101AC000801F848013480078401C12490870144815
:101AD000007860401349085C1149087016E00F480F
:101AE000801F808800EB04200C49891F88800948EA
:101AF0000078401C0749087009480078604009498F
:101B0000085C0749087001E0FFE700BF00BF10BD97
:101B100000480040380000203A0000204200002029
:101B2000390000205E2B00080000002010B50022C4
:101B30000023A1F510646A3C00D100BF0A12012401
:101B40009440A3B2DC43048010BD21B1828942F4E9
:101B50000052828104E082894DF6FF731A4082812F
:101B6000704770B502460024002300250020A1F52F
:101B700010666A3E00D100BFC1F3421501F01F0399
:101B8000012606FA03F3012D02D19689334006E0BF
:101B9000022D02D1168A334001E0968A33400C129E
:101BA000012606FA04F41688344013B10CB1012062
:101BB00000E0002070BDF0B503460024002600259B
:101BC0000020A1F510676A3F00D100BF1846C1F39D
:101BD000421401F01F06012707FA06F5012C01D176
:101BE0000C3004E0022C01D1103000E014301AB1A6
:101BF00007682F43076002E00768AF430760F0BD46
:101C00002DE9F04786B005460E460024A24600BFE7
:101C1000A1460027B08900B100BF2F462C8A4CF6A0
:101C2000FF700440F08804432C82AC894EF6F31018
:101C30000440B08831890843718908430443AC816A
:101C4000AC8A4FF6FF400440B0890443AC8201A83F
:101C5000FFF7C4FC1F48874202D1DDF810A001E065
:101C6000DDF80CA0A88910F4004F08D00AEBCA00D8
:101C700000EB0A1031684900B0FBF1F807E00AEB0D
:101C8000CA0000EB0A1031688900B0FBF1F864204B
:101C9000B8FBF0F004012009642101FB1089A88938
:101CA00010F4004F08D0322000EBC900B0FBF1F077
:101CB00000F00700044308E0322000EB0910642123
:101CC000B0FBF1F000F00F0004432C8106B0BDE83A
:101CD000F08700000038014001468888C0F3080002
:101CE000704700BFFEE7490050EAC12018BF04203A
:101CF0004A0D18BF40F0010040F2FF72B2EB515F95
:101D000008BF40F00200012808BF052070473038A6
:101D10000A2801D2012070470020704700BF704799
:101D20002DE9F05F00245A49888800F097FB0746A8
:101D30000022584B00F03AFA054600F005FA8246B8
:101D40005349488D00F08AFB05460022514B00F0B4
:101D50002DFA074600F0F8F983464F49504600F047
:101D600055FE04D84C49504600F082FE82464A494E
:101D7000584600F04BFE04D84749584600F078FE1C
:101D800083464649504600F073FE824605460021D0
:101D900000F03CFD04D24049504600F0F3FB82467F
:101DA0003E49584600F064FE83460546002100F097
:101DB0002DFD04D23849584600F0E4FB83465946CD
:101DC000504600F023FE04D23349584600F0DAFBB7
:101DD00083465146584600F04BFE0546304900F018
:101DE0003FFC814600244EE0204600F0FBFC064606
:101DF000494600F03FFD0546514600F0C3FB294926
:101E0000097801EB4101284A02EB4101C1F80200C7
:101E10002449097801EB410102EB4101D1F80200AC
:101E20001D4900F0F3FD14D81E49097801EB41016A
:101E30001D4A02EB4101D1F80200174900F018FEDB
:101E40001849097801EB4101174A02EB4101C1F839
:101E5000020004EB44010E48801D0844008811492B
:101E6000097801EB4101104A02EB410108800D485D
:101E70000078401CC0B20B490870642801D10020D2
:101E80000870601CC4B20C2CAEDBBDE8F09F0000F3
:101E90003C000020000059400000B44300003443DF
:101EA000000030413B0000206B00002010B56FF0B7
:101EB0000400FFF767FC0A4800680A49B0FBF1F02C
:101EC000094908700846007800EB4001C1EBC010DA
:101ED0004FF6FF7101EAC0000449088010BD000000
:101EE0000400002000127A002C0000202E000020A8
:101EF0000146114A12884A434FF0E0235A610022FA
:101F00009A611A46126942F001021A6100BF4FF04D
:101F1000E022106910F0010F02D010F4803FF6D0DB
:101F20004FF0E022126922F001024FF0E0231A6123
:101F300000229A61704700002E00002000BF054A71
:101F4000128812F0400FFAD0C2B2024B1B1D1A8049
:101F500070470000003801404FF4A060FFF712FB0B
:101F6000FFF7A4FF4FF4E13000F088F84FF4E130C0
:101F700000F030F822E0002400BF18E004EB440138
:101F80000F4A02EB4101D1F8020000F0CFFA0546FA
:101F90002A460B460BA0FEF74BF904EB4400084A17
:101FA00002EB4000018809A0FEF742F9641C642C92
:101FB000E4DB4FF4FA70FFF79BFF00BFDBE70000A4
:101FC0006B000020252E32662000000025640D0ADB
:101FD0002000000010B586B0044601210820FFF75C
:101FE000EDFA01218804FFF7D9FA4FF48060ADF8CB
:101FF000140003208DF8160018208DF8170005A98D
:102000001C48FFF7F7F94FF40060ADF81400042006
:102010008DF8170005A91748FFF7ECF927208DF870
:10202000000000208DF8010001208DF802008DF8DD
:1020300003006846FFF76CFA01940020ADF8080031
:10204000ADF80A00ADF80C00ADF810000C20ADF8AA
:102050000E0001A90848FFF7D3FD012240F22551E7
:102060000548FFF7A8FD01210348FFF76EFD06B004
:1020700010BD0000000C01400048004010B586B0C3
:102080000446012144F20400FFF798FA4FF400706F
:10209000ADF8140003208DF8160018208DF81700F5
:1020A00005A91C48FFF7A6F94FF48060ADF81400AD
:1020B00004208DF8170005A91648FFF79BF9252085
:1020C0008DF8000003208DF801008DF8020001203A
:1020D0008DF803006846FFF71BFA01940020ADF865
:1020E0000800ADF80A00ADF80C00ADF810000C20A7
:1020F000ADF80E0001A90848FFF782FD012240F269
:1021000025510548FFF757FD01210348FFF71DFD45
:1021100006B010BD000801400038014010B500298C
:102120000AD00878002807D005487844FEF764FDF7
:10213000002801D0002010BD0248784410BD0000E6
:10214000EA0B0000E20B000021F00042A2F1605215
:10215000B2F5801F01F0004328BFD2F17F6C0BD98C
:102160005FEA001C43EAC20242EB507018BF70479E
:1021700028BF20F001007047B2F5801FBCBF184691
:1021800070474FEA410C1CF5001F02D2084600F0D0
:1021900038BC70B500F075F900000089FFF7F6BF94
:1021A0004FF00040A0F58000704700002DE9C041CD
:1021B00030B4DFF8A0C23CEA111418BF3CEA131493
:1021C00000F0EC8081EA03051CEA111444EAD5749E
:1021D00018BF1CEA131500F0C780A4EB05044FF0EC
:1021E000004545EAC12145EAC32341EA505143EA8B
:1021F000525304F17F74994204F500344FEAC02031
:102200004FEAC22208BF904200F09C804FEA13655B
:102210000FF24016765D4FEA134506FB05F7C7F14E
:10222000807706FB07F74FEAD737A7FB03687642AC
:10223000C8F58038A7FB06CE38BFA8F1010807FB18
:1022400008E64FF0000EA6FB028CE6FB03CEDCF1A5
:10225000000CCEF1004E38BFAEF1010EA6FB0C58BB
:102260004FF000074FF00005E6FB0E87A1FB08C604
:10227000A0FB07CE16EB0E0645F10005E1FB076556
:1022800015F1E04E7EBFA4F580345FEA46066D414D
:1022900016F1800745F100054FEA17274FEA066659
:1022A00047EA0567A6F1DE46B6F1805F4FEA1525DD
:1022B0001FD9384624F0010C05EBC471BCF1FE6F48
:1022C00001EB0C1102D8F0BCBDE8008124425CBFD8
:1022D00001F5801E9EEAC47F02D4F0BCBDE80081F7
:1022E000244238D4F0BCA1F1C041BDE8004100F067
:1022F00016B94FEAD22242EA43524FEAD323A7FB50
:1023000002864FEAD02040EA415007FB03661EEAEE
:102310000E0F4FEAD12105FB026658BFA6EB00560F
:10232000B6EB00564FEA520E4EEAC37E18EB0E0E85
:1023300056EB530EBDD518EB02085E417F1C55F1DC
:102340000005B6E74FF480154FF000074FF0000688
:102350004FF00008ADE7F0BC4FF0000001F1C041C4
:1023600001F00041BDE8008111EA0C1F0CEA1315D1
:1023700000D00CE013EA0C1F00F025804FF00000A5
:10238000F0BC81EA030101F00041BDE80081F0BC2E
:10239000BDE8004181EA030100F0C1B8F0BCBDE82E
:1023A000004170B500F06DF8097EFC3E00F007B802
:1023B00081EA03014FF0000001F00041704781EA1B
:1023C000030100F0ACB8F0BCBDE800414FF00000E4
:1023D00021497047FFFDFBF9F7F5F4F2F0EEEDEB64
:1023E000E9E8E6E4E3E1E0DEDDDBDAD8D7D5D4D313
:1023F000D1D0CFCDCCCBCAC8C7C6C5C4C2C1C0BF5F
:10240000BEBDBCBBBAB9B8B7B6B5B4B3B2B1B0AF64
:10241000AEADACABAAA9A8A8A7A6A5A4A3A3A2A148
:10242000A09F9F9E9D9C9C9B9A9999989797969503
:1024300095949393929191908F8F8E8E8D8C8C8B9F
:102440008B8A898988888787868585848483838227
:10245000828181800000FF070000F87FB0FA80F3DE
:1024600010FA03F10AD0C3F11D0303F580634FEAAC
:1024700041504FEA035202EBD12170474FF0000068
:1024800070470EF1020E2EF0030E5EF8046B36421A
:1024900005D4012A43EB030515F5001F12D80128C6
:1024A00041EB010C1CF5001F0CD80ED14FEAD17C7A
:1024B00015F5001F0CEB4C0C0CF1020C08BF4CEB9B
:1024C000D37C04E04FF0080C01E04FEAD37C0CEB26
:1024D0004C0526FA05F606F00706B6F1040C06D2FE
:1024E0000EEB860CBDE870404CF0010C6047DFE855
:1024F0000CF0090B02024FF000414FF00000A1F573
:10250000002170BD19461046012851EB010418BF87
:10251000D4F5001484BF002001F0004170BD08080C
:10252000A0F500114FEA31017047000043004FEA67
:10253000D30C4FEA3C0C43401FBF40070CF16051E5
:1025400013F0FE4F70471CF0006F03D100200CF019
:10255000004170470CF0004343EA507010B540EA68
:10256000CC0000F008FA00BF000000924FEA000122
:10257000FFF7D5BF4FF000414FF00000A1F500215B
:102580007047000090EA010F48BF81F0004100F160
:102590007682421A3CBF801A89184FEAD0524FF017
:1025A0007F4C1CEA410FA2EBD15318BF9CEA026F8B
:1025B00000F03B804FF0004C4CEA00204CEA012137
:1025C00021FA03FC10EB0C0C1ED202F1FF325FEA81
:1025D0001C2040EBC25038BF70471CF07F0F4FEA01
:1025E000400C18BFBCF17F4F38BF7047C3F12003C8
:1025F000994008BF20F00100BCF17F4F38BF704701
:10260000A0F1C04000F0FDB94FEA3C00000A40EBE9
:10261000C25028BF1CF0FF0F4FEA400CE6D018BF95
:10262000BCF17F4F38BF7047EAE79CEA026F05D0E4
:1026300010EA5C0F08BF00F00040704710B500F0D2
:102640009AF900BF64FBBE3E401058BFC0F1404045
:10265000491058BFC1F140418142EFF300807047FB
:102660004FF47F0C1CEAD0121EBF1CEAD11392EA71
:102670000C0F93EA0C0F00F0858090EA010F48BF21
:1026800042F4807240F4000C41F400002CF07F41D1
:1026900020F07F4000B58142A2EB03020FF2081C3C
:1026A000ACEB504EC0F100009EF800E04FEA4E0E39
:1026B00000FB0EFC38BF49004FEA2C1C02F5FA0261
:1026C0000CFB0EF34FEACE1E4FEA112C4FEAC1214C
:1026D0000EEB635E42EB22420EFB0CFC4FEA1C53F6
:1026E00000FB03114FEA112C4FEA01310EFB0CFCE9
:1026F0004FEADC4C00FB0C11C14228BF09184CEB1F
:1027000003335DF804EB10EB410143EBC250B2F52B
:102710007C0F38BF704729D512F0F00F1CBF00F1B5
:10272000C04000F000407047008182838485868726
:1027300088898B8C8D8E8F919293959697999A9C80
:102740009D9FA0A2A3A5A7A8AAACAEB0B2B3B5B7EF
:10275000B9BCBEC0C2C5C7C9CCCED1D4D7D9DCDFC5
:10276000E2E6E9ECF0F3F7FAFE0000004FEA400C75
:102770000CF1807CBCF17E4F28BF7047B0F1C040A7
:1027800000F03FB990EA010F0CEAD11348BF42F4C0
:102790008072624538BF634507D213F47F0F16D0AD
:1027A00080EA010000F00040704710B500F0E3F847
:1027B000097EFC3E00F005B880EA010000F0004010
:1027C000704780EA010000F0004000F01AB912F4EE
:1027D0007F0F04BF0248704780EA010000F011B982
:1027E0000000C07FB0FA80F310FA03F2C3F19D033A
:1027F0000AD0D90501EB1220530638BF704700F10B
:10280000010008BF20F001007047000050EA010CF1
:1028100000F113801CF5000F58BFBCF5000F01D468
:102820008842704707D710F5000F58BF11F5000F09
:1028300015D488427047894270471CF5000F04D5B3
:10284000BCF5000FF7D5814270474FF0807C1CEB40
:10285000400F38BF1CEB410F01D28142704710B5C9
:1028600000F089F8922449004FF000504FF0805159
:10287000FFF7EABE4FF47F0C1CEAD0121EBF1CEA21
:10288000D11392EA0C0F93EA0C0F00F0478090EA04
:10289000010F48BF42F480724FF0004C4CEA002018
:1028A0004CEA012102EB0302A0FB0113A2F5000296
:1028B000002918BF43F001035B0028BF4FEA330330
:1028C00042EB22425FEA132C4CEBC2502EBFBCEB12
:1028D000436FB2F57C0F70474FEA036CBCF1004FB9
:1028E00008BF20F00100B2F57C0F38BF70470BD550
:1028F00082F0FF0212F5803FC8BF704700F1C04070
:10290000D8BF00F00040704700F5000C5FEA4C0CA7
:1029100048BF7047B0F1C04000F073B890EA010FB3
:102920000CEAD11348BF42F48072624538BF634558
:1029300004D280EA010000F00040704710B500F0BA
:102940001AF800BF8900013E00F007B800F009B88E
:102950005FEA410C5FEA1C6C08D080EA010000F0DD
:1029600050B85FEA400C5FEA1C6CF6D14FF00040B3
:10297000A0F5800070470EF1020E2EF0030E5EF8F7
:10298000044B244204D44FEA4102B2F17F4F11D8E4
:102990004FEA4003B3F17F4F0CD80ED14FEAD07C01
:1029A000B2F17F4F0CEB4C0C0CF1020C08BF4CEB5E
:1029B000D17C04E04FF0080C01E04FEAD17C0CEB35
:1029C0004C0324FA03F404F00704B4F1040C06D217
:1029D0000EEB840CBDE810404CF0010C6047DFE8C2
:1029E0000CF0070802024FF00040A0F5800010BD77
:1029F0000846420018BFD2F1807288BF00F0004044
:102A000010BDFF2141EAD050C005704751EA000CCB
:102A100000F113801CF5000F58BFBCF5000F01D466
:102A20008142704707D711F5000F58BF10F5000F0E
:102A300015D481427047894270471CF5000F04D5B8
:102A4000BCF5000FF7D5884270474FF0807C1CEB37
:102A5000410F38BF1CEB400F01D28842704780EA1B
:102A6000010081EA000180EA0100FFF7F8BE0000E2
:102A700090EA010F48BF81F000413FF58AAD421A4C
:102A800004D882F00042A0EB020011444FEAD05279
:102A90004FF07F4C1CEA410FA2EBD15318BF9CEAC8
:102AA000026F4AD04FF0004C4CEA00204CEA012162
:102AB00021FA03FCB0EB0C0C0FD412F0FE0F36D051
:102AC0005FEA4C001DD5001240EBC25038BF704782
:102AD0001CF03F0F18BF70470BE0A2F101025FEA44
:102AE0001C2040EBC25038BF70471CF07F0F18BF4E
:102AF0007047C3F12003994014BF401E20F001002D
:102B0000704780084FEA122308BF7047B0FA80FC74
:102B1000A2EB0C02CCF1280C60FA0CF093EA122F15
:102B200004BF00EBC25070474FEAC3707047130AEE
:102B30005FEADC1008BF7047F6E79CEA026F04D03A
:102B400010EA5C0F08BF0020704710B5FFF713FFB5
:102B500040DFF63E81F000407047FDF790BD004D2C
:102B60009AD77934E3AEF2BF68258BC6115CA9E42D
:102B7000337ED09D4A075B16C18C226FB8F51F5279
:102B800085C8662BFCB1EDA0773A94D90E43B6FB0D
:102B90002C61CF8255184409DE933D70A7EA3E733D
:102BA000A4E9470ADD90CC81561BB5F82F6297DA6D
:102BB0000D40EEA374396528FFB21C5186CB216C01
:102BC000BBF65815C28FD39E4904AAE7307D88C54D
:102BD000125FF1BC6B267A37E0AD034E99D47C319D
:102BE000E6AB05489FD28EC31459F7BA6D20D5982D
:102BF0004F02ACE1367B276ABDF05E13C489632EB9
:102C0000F9B41A5780CD91DC0B46E8A5723FCA870C
:102C1000501DB3FE29643875A2EF410CDB96420FBC
:102C2000D8953B76A1ECB0FD2A67C984531EEBA66C
:102C3000713C92DF0845195483CE602DFAB75D10C0
:102C4000C78A2469BEF3AFE23578D69B4C01F4B94C
:102C50006E238DC0175A064B9CD17F32E5A8000029
:102C600002400000000000A000000000054000003D
:102C7000000000C8000000000C4000000000409C64
:102C800000000000194000000020BCBE0000000051
:102C900034400000BFC91B8E00000004B540000096
:102CA000504BCFD06607E2CF010000006C4100001E
:102CB0003E8251AADFEEA73401000000D942000095
:102CC000DCB5A0E23A301F97FFFFFFFFB4450000DC
:102CD000FD25A0C8E9A3C14FFFFFFFFFFF3F000094
:102CE0000000008000000000FF3F000000000080A6
:102CF00000000000302D0008000000203C00000013
:102D00006C0100086C2D00083C000020EC0800005D
:102D1000880100081C00000043000000F8FFFFFFCE
:102D20000C0000000E0000000F0000002E0000004C
:102D30000000000000A24A040000000000000000A3
:102D40000102030406070809000000000102030451
:102D50000102030406070809020406080000000037
:0C2D600000000000000000000000000067
:0400000508000131BD
:00000001FF
