:020000040800F2
:10000000C8250020150200087B480008A73D00080D
:1000100079480008F5080008916000080000000019
:10002000000000000000000000000000E150000897
:10003000ED0C000800000000E34F0008ED5A000836
:100040002F0200082F0200082F0200082F020008CC
:100050002F0200082F0200082F0200082F020008BC
:100060002F0200082F0200082F0200082F020008AC
:100070002F0200082F0200082F0200082F0200089C
:100080002F0200082F0200087D0500082F0200083B
:100090002F0200082F0200082F0200086910000834
:1000A0002F0200082F0200082F0200082F0200086C
:1000B0002F0200082F0200086D5B00082F020008C5
:1000C0002F0200082F0200082F0200082F0200084C
:1000D0002F0200085D6000082F02000885600008FC
:1000E0002F0200082F0200082F0200082F0200082C
:1000F000855B00082F0200082F0200082F0200086D
:100100002F0200082F020008795B00082F02000868
:100110002F020008695E00082F0200082F02000865
:100120002F0200082F0200082F0200082F020008EB
:1001300000F002F800F05FF80AA090E8000C82449A
:100140008344AAF10107DA4501D100F054F8AFF277
:10015000090EBAE80F0013F0010F18BFFB1A43F0A5
:1001600001031847E49B0000049C00000A444FF080
:10017000000C10F8013B13F0070408BF10F8014B06
:100180001D1108BF10F8015B641E05D010F8016B4B
:10019000641E01F8016BF9D113F0080F1EBF10F8AF
:1001A000014BAD1C0C1B09D16D1E58BF01F801CBD2
:1001B000FAD505E014F8016B01F8016B6D1EF9D555
:1001C0009142D6D37047000000230024002500266A
:1001D000103A28BF78C1FBD8520728BF30C148BFAA
:1001E0000B607047642900F07780002070471FB5CE
:1001F0001FBD10B510BD00F093F91146FFF7F7FFD2
:1002000006F0D2FE00F0B1F903B4FFF7F2FF03BC31
:1002100006F084FB0948804709480047FEE7FEE7EF
:10022000FEE7FEE7FEE7FEE7FEE7FEE7FEE7FEE7A6
:1002300004480549054A064B704700006B5B0008FF
:1002400031010008C81F0020C8250020C821002057
:10025000C8210020704700000FB4044910B503AA5C
:10026000029800F027F910BC5DF814FB2C00002068
:100270002DE9F0410E460446002020622046E16848
:10028000884730B3252805D0D4E901219047206A5A
:10029000401CF2E7E168204600278847050018D097
:1002A000A5F14100192802D820354FF400673246E5
:1002B000294620462760FFF795FF40B1012804D06A
:1002C000F61D26F007060836D8E7361DD6E728467D
:1002D000DAE7206ABDE8F0812DE9F0410646002406
:1002E00010687529314616A510D0AFF3008000289C
:1002F00002DA404213A507E031688A0701D512A54A
:1003000002E0490704D511A5012401E0AFF3008004
:1003100000210A2206F1240709E0B0FBF2FCB0FB41
:10032000F2F302FB1C00303078541846491C0028B8
:10033000F3D123462A463046BDE8F04100F060B8CC
:10034000000000002D0000002B0000002000000035
:100350004FF000020429C0F0128010F0030C00F0EE
:100360001B80CCF1040CBCF1020F18BF00F8012B6C
:10037000A8BF20F8022BA1EB0C0100F00DB85FEA3A
:10038000C17C24BF00F8012B00F8012B48BF00F806
:10039000012B70474FF0000200B513469446964675
:1003A000203922BFA0E80C50A0E80C50B1F1200188
:1003B000BFF4F7AF090728BFA0E80C5048BF0CC036
:1003C0005DF804EB890028BF40F8042B08BF704794
:1003D00048BF20F8022B11F0804F18BF00F8012B06
:1003E0007047704770477047704710B500F074F859
:1003F000006810BD10B5044600F06EF8046010BD32
:100400002DE9F0470D4699469246044600F124082E
:100410000168880604D5E06921F01001216000E040
:100420000120A84201DD471B00E00027A1697A19DD
:1004300002EB0900081AA0612078C00602D4204609
:10044000AFF30080002608E0D4E901211AF8060085
:100450009047206A401C761C20624E45F4DB2078D1
:10046000C0060AD52046AFF3008006E0D4E901219A
:1004700030209047206A401C2062381EA7F10107F7
:10048000F4DC07E0D4E9012118F805009047206A60
:10049000401C2062281EA5F10105F3DC2046AFF3C5
:1004A00000802078000602D50220BDE8F0870120F8
:1004B000FBE70000074B70B50D467B4400F015F8D4
:1004C0000446284600F024F810B14FF0FF3070BD0C
:1004D000204670BDB76A000000487047681F0020C2
:1004E00001694A1C02610878704700B58FB0CDE9F8
:1004F00001310021059105497944CDE903101146E8
:100500006846FFF7B5FE0FB000BD0000E5FFFFFF36
:10051000007B00F08000704700487047681F002093
:100520007546FFF7F9FFAE4605006946534620F0D1
:100530000700854618B020B5FFF77AFEBDE82040D9
:100540004FF000064FF000074FF000084FF0000B8F
:1005500021F00701AC46ACE8C009ACE8C009ACE842
:10056000C009ACE8C0098D46704710B50446AFF32A
:1005700000802046BDE81040FFF746BE10B5044895
:1005800001F077F9BDE81040024801F072B90000AF
:1005900084020020B402002070B50446006881681F
:1005A000C943C90717D1816821F00101816001F0B9
:1005B0000BFE05460AE000BF01F006FE401B0228C4
:1005C00004D920688068C043C00706D020688068CE
:1005D000C043C007F0D0002070BDA06A40F01000FA
:1005E000A062E06A40F00100E062012070BD0000FE
:1005F000F8B500260446009600688168C943C9071B
:100600002DD0816841F001018160164816490068CB
:10061000B0FBF1F000E0401E00900028FBD101F09B
:10062000D3FD054616E000BF01F0CEFD401B0228B9
:1006300010D920688068C043C0070BD0A06A40F082
:100640001000A062E06A40F00100E06284F82460DB
:100650000120F8BD20688068C043C007E4D10020B5
:10066000F8BD00003C00002040420F0070B5254856
:10067000032186B000884000A0F5FA6090FBF1F0FD
:10068000002801DA002002E0642800DD6420204A0E
:100690001D4C1E4E1178A9B100211E4D11702A78F3
:1006A000012A11D049B3206808F0B0F90446306837
:1006B00008F0ACF90146224617A006B0BDE870402C
:1006C000FFF7CABD0121E8E71648006808F09EF967
:1006D00006461548006808F099F90024014605947B
:1006E0000294039404940094234632460FA001948C
:1006F000FFF7B2FD2C7006B070BD0146002213A0BA
:10070000DBE7000008000020AC0900209C09002065
:1007100048020020D20000207B4225643A25647DF7
:1007200024000000C0000020AC0000207B432564B2
:100730003A25643A25643A25643A25643A25643AB0
:1007400025643A25643A25647D2400007B412564B4
:100750003A25643A7D2400002DE9F0478A46814617
:1007600008F0EDFA344C80460146606808F018F84D
:1007700032496060884202DC3149884200D96160B8
:100780003048314D514606782B488768484608F076
:10079000D6FA394608F0DEFA16B3012E2BD0022E17
:1007A00034D0296B08F0CEF906466168686B08F012
:1007B000C9F90746D5F82C00414680F0004008F002
:1007C000C1F9394608F0C6FA314608F0C3FAC4F850
:1007D000088020601D48406810F0FF4F21D027E0BE
:1007E000E96808F0AFF906466168286908F0AAF9D7
:1007F0000746A868E0E7A96908F0A4F90646616819
:10080000E86908F09FF907466869D5E7696A08F062
:1008100099F906466168A86A08F094F90746286ABB
:10082000CAE70B48406810F0FF4F01D1002060601C
:100830002068BDE8F0870000FC01002000007A4439
:1008400000007AC407000020FC0000209C09002062
:10085000AC09002010B52048204C0178002089B157
:10086000012916D01E4A022915D0032918D00429BF
:1008700013D0052917D01B4A06290ED007290FD0FF
:10088000082908D0A060E06017480078012810D03F
:1008900017E0616A0AE0606A02E0606A80F0004086
:1008A000C4E90202F0E7616A81F00041C4E9021084
:1008B000EAE70121E06808F022FB0C4907F0E4FFB9
:1008C000E0600B49A06807F0DFFFA060E06880F0FF
:1008D0000040E06010BD0000D30000208800002030
:1008E000DB0FC93FDB0FC9BF07000020000020411C
:1008F00000007A44FEE7000010B50B4B4FF40041B6
:1009000058B10A4C2268521C2260824204DB18460D
:1009100001F04DFC0020206010BDBDE81040002219
:10092000184601F04CBC00000008014040000020C7
:100930003EB50021144800910191124A02910260D3
:1009400081600173017501244FF460220461C2616A
:10095000416001F001F808B100F08AFB0F20CDE9F9
:100960000004072002906946074800F0DDFE08B148
:1009700000F07EFB044801F089F9034800F066FEB0
:100980003EBD0000002401408402002070B51548DF
:1009900086B0816941F004018161816901F004013F
:1009A0000491816941F0100181618069012400F0A6
:1009B000100004901020CDE900040B4E022569467A
:1009C0000395304601F0F2FA2020CDE90004694693
:1009D0000395304601F0EAFA06B0BDE87040FFF733
:1009E000A7BF0000001002400008014010B504F04D
:1009F000F9FA00F03FFB074807490068086007481C
:100A0000407908F057F84FF0854100F00BF80449A1
:100A1000086010BDC000002090000020E000002011
:100A2000940000202DE9F0478A46814608F087F9B6
:100A3000354C80460146606C07F0B2FE3349606475
:100A4000884202DC3249884200D9616431482E4D27
:100A5000514606782C48803D876C484608F06FF96F
:100A6000394608F077F9012E1FD056B3022E34D044
:100A7000E96D08F067F80646616C286E08F062F8C8
:100A800007464146D5F8580008F05CF8394607F0AB
:100A900087FE314607F084FEC4F8488020641E4873
:100AA000406810F0FF4F24D02AE0A96B08F04AF804
:100AB0000646616CE86B08F045F807464146686BEE
:100AC000E2E7696C08F03EF80646616CA86C08F035
:100AD00039F807464146286CD6E7296D08F032F808
:100AE0000646616C686D08F02DF807464146E86CD3
:100AF000CAE70A48406810F0FF4F01D10020606447
:100B0000206CBDE8F0870000FC01002000409C45FF
:100B100000409CC5070000209C090020AC09002073
:100B20000A480C4902780A4842B1012A06D0022A32
:100B300008D0094A0260094808607047084A026004
:100B40000848F9E7084A02600848F5E7070000206E
:100B50002400002028000020308C0D3E8D976E3E32
:100B6000D589573E9EEF273EA3540A3E713D0A3E6B
:100B7000024610B50020012903D000290BD10A4BF1
:100B80000EE0094B0021323B03E05C5C6040491CF5
:100B9000C9B29142F9D310BD5C5C6040491CC9B236
:100BA0009142F9D310BD0000200A002070B514480E
:100BB000008807F07FFF134907F066FE04461248DD
:100BC0000121C06800F068F810480221C06800F0F8
:100BD00063F80321204600F05FF8032000F01CF8C2
:100BE0000B4A00210B4B141D06E015686D06FCD561
:100BF0005D5C2560491CC9B28142F6D370BD00001E
:100C0000080000200000C8429C090020AC09002018
:100C100000380140180900200A2839D890B31D492E
:100C200024220B280A7033D2DFE800F032060A0EC5
:100C300012161A1E22272D00052048710620704723
:100C4000092048720A2070470D2048730E20704713
:100C500011204874122070471520487516207047DF
:100C6000192048761A2070471D2048771E207047AB
:100C7000212081F8210022207047252081F82500BD
:100C80002620704704E0292081F829002A20F8E76F
:100C90000020F6E71809002003B50A2912D8002918
:100CA00010D00B290ED2DFE801F00D06080E10124D
:100CB0001416181A1C00012200E005220A49684691
:100CC00000F050FA0CBD0922F8E70D22F6E71122D8
:100CD000F4E71522F2E71922F0E71D22EEE72122C0
:100CE000ECE72522EAE70000180900207047000021
:100CF000F0B513480021007801281FD1114C124A89
:100D000000204FF0937640F2BB254FF4C37700BF2D
:100D100000EB400302EB4303D3F802C0A444B44504
:100D200005D91B885B1EAB4201D2491CC9B2401CCD
:100D3000B842EDDB032901D90120F0BD0020F0BD50
:100D4000BC000020000090BDD81500202DE9F04126
:100D500007F0F5FF1B4C05460146606A07F020FDD1
:100D600019496062884202DC1849884200D96162F0
:100D70002846A16A07F0EEFF154EF16E07F0E2FE7D
:100D80000746616A306F07F0DDFE8046B06E294687
:100D900080F0004007F0D6FE414607F0DBFF394601
:100DA00007F0D8FF0B49A5622062496811F0FF4F98
:100DB00006D10949496811F0FF4F01D10021616254
:100DC000BDE8F081FC01002000007A4400007AC4F4
:100DD000FC0000209C090020AC0900200020401CE1
:100DE0000A28FCDB704700F001B800003EB5002186
:100DF000144800910191124A0291026081600173CE
:100E0000017501244FF460220461C261416000F069
:100E1000A3FD08B100F02CF90720CDE901400F2017
:100E200000906946074800F07FFC08B100F020F907
:100E3000044800F02BFF034800F008FC3EBD000012
:100E4000002401408402002070B5042000F012FA52
:100E50001F4CE060052000F00DFA20610F2000F02B
:100E600009FA60612169E36801EBC10202EB01123A
:100E700003EB8205C72202FB00521944084492FB8F
:100E8000F0F0A061FFF734FF124E134D50B113483C
:100E90000078D8B15FF00000FFF72EFD0020306031
:100EA000286070BD0E48006830600E48007858B168
:100EB000012809D06421A06900F016F82860BDE877
:100EC00070400020FFF718BD5C21F4E76420E3E7E1
:100ED000E00000209000002094000020200000206E
:100EE000C4000020070000202DE9F04707460D460A
:100EF000C81B07F0C7FD554C0146E062606B07F068
:100F00004FFC53496063884202DC5249884200D951
:100F1000616351480678E81B07F0B4FD07F076FDE1
:100F20004A4D803DAEB3012E50D0022E69D006F05E
:100F3000A9F807F0BFFD296B07F004FEE16A8946B6
:100F400007F000FE07464846A16B07F003FFA96AB9
:100F500007F0F8FD0646616BE86A07F0F3FD80468E
:100F6000D5F82400494680F0004007F0EBFD4146EB
:100F700007F0F0FE314607F0EDFE394607F0EAFED5
:100F80002063E06AA0633548406810F0FF4F53D0FB
:100F900059E0FFE706F076F807F08CFD296807F0C6
:100FA000D1FDE16A894607F0CDFD07464846A16BB1
:100FB00007F0D0FE2A4DA96F07F0C4FD0646616B0D
:100FC000E86F07F0BFFD8046686FCBE706F05AF880
:100FD00007F070FD296907F0B5FDE16A894607F061
:100FE000B1FD07464846A16B07F0B4FEA96807F0BB
:100FF000A9FD0646616BE86807F0A4FD80466868B5
:10100000B0E706F03FF807F055FD296A07F09AFDB2
:10101000E16A894607F096FD07464846A16B07F04E
:1010200099FEA96907F08EFD0646616BE86907F035
:1010300089FD8046686995E70A48406810F0FF4FCF
:1010400001D100206063206BBDE8F087FC01002027
:1010500000409C4500409CC5070000209C090020E2
:10106000FC000020AC0900204FF4007000F092BF9B
:1010700072B6FEE770B53949394C0F2308882081D4
:1010800002462370257831F81560864200D3304639
:101090006D1CEDB225707B2DF4D32081628123700D
:1010A000257831F81560964200D832466D1CEDB2B5
:1010B00025707B2DF4D310446281C0F34700A071EA
:1010C0002370237831F81350854212D901EB430283
:1010D000568886420DD9968886420AD9D688864295
:1010E00007D21689864204D25589854201D2A3705F
:1010F00004E05B1CDAB22270762AE2D376226270B8
:10110000D3B231F81320824212D201EB4302558848
:1011100085420DD2958885420AD2D588854207D965
:101120001589854204D95289824201D9E37004E0CD
:101130005B1EDAB262700F2AE2D8E078A178084428
:10114000400860712179401A05F09CFF5A2801D9A6
:10115000207960716079207170BD0000B80A0020AC
:10116000E000002003788B54114443784B70827860
:101170008A70C078C87070472DE9F0478A4681466A
:1011800007F0DDFD344C80460146606907F008FB3E
:1011900032496061884202DC3149884200D961618C
:1011A0003048314D514606782B488769484607F04C
:1011B000C6FD394607F0CEFD012E1ED0022E28D0E6
:1011C0009EB3E96B07F0BEFC06466169286C07F028
:1011D000B9FC07464146A86B07F0B4FC394607F056
:1011E000DFFA314607F0DCFAC4F8188020611F48A6
:1011F000406810F0FF4F25D02BE0A96C07F0A2FC4F
:1012000006466169E86C07F09DFC07464146686C3C
:10121000E2E7696D07F096FC06466169A86D07F084
:1012200091FC07464146286DD6E7FFE7296E07F097
:1012300089FC06466169686E07F084FC07464146F2
:10124000E86DC9E70A48406810F0FF4F01D100205F
:1012500060612069BDE8F087FC01002000007A444D
:1012600000007AC407000020FC0000209C09002038
:10127000AC0900203EB5694600900720029001208D
:1012800001900A4800F050FA084800F0FFFC1E21C7
:10129000064800F05DFC054800F0E6FA800503D53D
:1012A000024800F0E3FA84B220463EBD84020020EA
:1012B00070B504F0EFFE244A012814D0022838D07B
:1012C00003283BD11078042838D12049087878B316
:1012D00000200870002831D1BDE8704040F624118C
:1012E0001B48FFF735B81078401CC3B21370042BAD
:1012F00017D0184D4FF40044052B16D0062B1DD1E6
:1013000015490020107008601449086014494860AD
:101310001449486021462846BDE87040002200F08C
:101320004EBFBDE87040FFF75EBDFFF72FFBF1E752
:1013300007E00D48017811B10021017070BD012155
:10134000FBE70120C5E7000088000020BC0000206A
:10135000D8150020000801409400002090000020D3
:10136000AC0900209C090020040000202DE9F04178
:10137000164CA168206802F017FD07F083FB04F10A
:1013800010056060A968286802F030FD07F07AFB5C
:1013900068600F48007808B1072807D1606803F03B
:1013A0001BFA6060686803F03FFA6860094E606885
:1013B00077423246394603F0FBFD606032463946DB
:1013C000686803F0F5FD6860BDE8F0819C090020C5
:1013D000880000200CE5FFFF2DE9FE4F80466548A0
:1013E00000900A4664486549664E0078644C0B6874
:1013F0004FF0FF3706F11005012824D018B102285C
:1014000001D003281DD11946104607F09BFB394631
:1014100007F075FD8146414607F091FC0746B06034
:101420004846414607F0BCF9A86021463846009A74
:1014300006F07AFBB0602146A868009A06F074FBBB
:10144000A860BDE8FE8F5048029092463946184683
:1014500007F055FD07F078F981460F46504607F032
:1014600073F906F02FFB02460B464FF00040474948
:1014700006F06CFC4A463B4607F07CF806F078FB29
:101480008346434A4349504606F04EFB074610F058
:10149000FF4F17D0DFF800915846494607F05AFC35
:1014A000414607F04FFB594607F0EEF9B060494658
:1014B000584607F075F9414607F044FB594607F0D6
:1014C000E3F902E04046C6F80880A8603349384690
:1014D00007F038FB07F038F982468B46384607F0AC
:1014E00033F9074600224FF08043019105F0D8FD03
:1014F00000222B4B06F018FE804689463846002213
:10150000284B019905F0CCFD4FF00042264B06F028
:101510000BFE42464B4606F05DFB52465B4607F02B
:1015200029F80022214B06F055FB06F021FB20494B
:1015300007F010FC029907F005FB1E4907F030F98F
:1015400007F064FA1C4F21463861B068009A06F033
:10155000EBFAB0602146A868009A06F0E5FAA860A8
:1015600040F698024FF44871386906F0EFFA386196
:1015700067E700000000604007000020280000200E
:10158000000060C09C090020D7231F44976EC23F13
:101590000AD7A33E48E1FABE54E3A53DE5D0E23FB9
:1015A000D34DF43F000008409318E4BF022BF93FED
:1015B0004C37C93F0080BB44880000202DE9F04132
:1015C000042003F059FD1B4C2060082003F054FD5B
:1015D000054660601848007828B1012803D0022829
:1015E00001D0032807D1206807F04CFA074668426B
:1015F00007F048FA0646114C3846214607F0A2FA91
:101600000F4909680F4607F09DFA0E4D294607F06D
:101610003BF90D4908602146304607F093FA3946F8
:1016200007F090FA294607F02FF9074910310860B2
:10163000BDE8F081B400002007000020000048430E
:10164000240000200000C3449C090020F8B50025B8
:101650000446009590F82400012808D0012084F861
:1016600024002046FEF798FF060002D053E0022037
:10167000F8BDA06A20F4885040F00200A062022069
:1016800000F054FE26490968B1FBF0F0400000E08C
:10169000401E00900028FBD12046FEF7A9FF2068DD
:1016A000816841F00801816000F08EFD074608E086
:1016B00000F08AFDC01B0A2803D920688068000753
:1016C00015D4206880680007F2D42068816841F052
:1016D0000401816000F078FD074612E000F074FD1F
:1016E000C01B0A280DD920688068400709D5A06A68
:1016F00020F0020040F01000A06284F82450012085
:10170000F8BD206880684007E8D4A06A20F0020095
:1017100040F00100A06284F824503046F8BD00007B
:101720003C00002070470000F8B50024009490F8B9
:1017300024202546012A12D0012280F824204A685C
:101740001F23072A0DD20668776B521E02EB820216
:1017500093409F430B6893401F43776319E0022037
:10176000F8BD06680D2A0AD2376BD21F02EB82023F
:1017700093409F430B6893401F43376309E0F76A28
:101780000D3A02EB820293409F430B6893401F4344
:10179000F7620A68072306680A2A0AD3F7680A3A32
:1017A00002EB420293409F438B6893401F43F760D4
:1017B00008E0376902EB420293409F438B689340F5
:1017C0001F4337610A68102A01D0112A20D1124B19
:1017D00002689A4217D193681B0219D4936843F4A4
:1017E000000393600968102912D10C490C4A09685A
:1017F000B1FBF2F101EB8101490000E0491E0091CB
:101800000029FBD104E0816A41F0200181620124BA
:1018100080F824502046F8BD002401403C00002000
:1018200040420F000B4910B5884212D1084600F023
:101830001DF880B207F03EF9074907F083F9074920
:1018400007F080F9064907F07DF907F0FBF8054934
:10185000088010BDB40200206740533A00003041B8
:101860000000C8420A000020806A70470068C06C0F
:10187000704710B5044600684168890626D501689E
:10188000890723D5A16AC90603D4A16A41F400716E
:10189000A1628168C1F34241072910D1217B71B94E
:1018A000416821F020014160A06A20F48070A062AC
:1018B000A06AC00403D4A06A40F00100A0622046E0
:1018C000FFF7B0FF21686FF01200086020684168E0
:1018D00009062ED5016849072BD5A16AC90603D48C
:1018E000A16A41F40051A1628168C1F30231072964
:1018F00009D04168490515D48168C1F342410729DF
:1019000010D1217B71B9416821F080014160A06A4A
:1019100020F48050A062A06AC00503D4A06A40F001
:101920000100A0622046FFF7FDFE21686FF00C0069
:1019300008602068416849060DD50068C0070AD0D4
:10194000A06A40F48030A062204600F095F821683B
:101950006FF00100086010BD2DE9F04104004FF068
:1019600000057FD0A06A002628B9E66284F82460CA
:10197000204600F083F82046FEF70EFEA16AC90655
:1019800000D420B1A06A40F01000A0626AE0A16A11
:1019900021F4885141F00201A162334923688B424E
:1019A000E16904D1B1F5402F01D14FF40021277B2B
:1019B0004FF4807C41EA470261680A43A1686145AF
:1019C00008D0012906D0002194F814E0BEF1010FDF
:1019D00002D00AE06146F7E7C7B1A76A47F02007DF
:1019E000A762E76A47F00107E7625F6827F4694783
:1019F0000F435F60236899681C4F39401143996019
:101A0000A16861450BD0012909D00CE0DFF860E046
:101A1000A7690EEB47370F4347F40061E5E7218ADA
:101A20000D05A5F580152168CB6A23F470032B43BF
:101A3000CB62216889680F4B1940914208D1E66258
:101A4000A16A21F0020141F00101A162BDE8F0812B
:101A5000A06A20F0020040F01000A062E06A40F0AE
:101A60000100E0620120F1E7003C0140FDF7E1FFE9
:101A700000E0FFFFFE0E1FFF7047000030B585B08D
:101A8000002100910191029103912C4B02682C4995
:101A900003242C489A422ED18A6942F400728A614A
:101AA0008A6902F4007204928A6942F004028A612F
:101AB0008A6902F0040204928A6942F010028A6183
:101AC0008969054601F0100104910121CDE9001456
:101AD000694600F06BFA3020CDE9000469461A48E7
:101AE00000F064FA2020CDE900046946284600F0A1
:101AF0005DFA05B030BD154B9A42FAD18A6942F4BD
:101B000080628A618A6902F4806204928A6942F082
:101B100010028A61896901F0100104910221CDE966
:101B20000014694600F042FA00221146122000F02B
:101B3000CBFB122000F0BBFBDBE7000000240140E0
:101B40000010024000100140000801400028014040
:101B50002DE9F84300270D460446009700F034FBBA
:101B6000804620688168C90508D5A06A40F0200039
:101B7000A06284F824700120BDE8F8834168C9059B
:101B800003D4C06A10F4700F2AD0022000F0CEFBFC
:101B90003B490968B1FBF0F62068036939490B42FB
:101BA0004FEA61014FEAA1121FD1C3684FEA611CDD
:101BB00013EA0C0F19D103690B4225D1C0681042FA
:101BC00022D1142023E0681C0AD02DB100F0FCFAC9
:101BD000A0EB0800A84203D920680068800725D53B
:101BE000206800688007EED52DE003690B4202D122
:101BF000C168114206D0026923490A4206D1C06871
:101C0000084203D1542002E0292000E0FC20464392
:101C1000009816E0681C11D02DB100F0D5FAA0EBA9
:101C20000800A8420AD90098B04207D2A06A40F042
:101C30000400A06284F8247003209DE70098401CF3
:101C40000090B042E6D321686FF012000860A06AED
:101C500040F40070A06220688068C0F3424007280A
:101C60000CD1207B50B9A06A20F48070A062A06AD9
:101C7000C00403D4A06A40F00100A06200207BE70A
:101C80003C000020244992244992240070B5044667
:101C900090F8240001280DD0012084F8240020466B
:101CA000FEF7A6FC02004FF0000005D084F82400E7
:101CB000104670BD022070BDA16A40F20123994315
:101CC00041F48071A1621F4D23681F49AB4218D1B6
:101CD0000E6816F4702F14D0A66A46F48016A66219
:101CE0000E68760505D5A66A26F4005646F4805699
:101CF000A662A66AF6040AD5E66A26F00606E66239
:101D000006E0A66A26F48016A6625E68E9E7E0624D
:101D100084F824006FF00200186020688368C3F321
:101D20004243072B05D1A84208D1096811F4702F4E
:101D300004D0816841F480118160B9E7816841F481
:101D4000A001F9E7002801400424014070B50446D1
:101D500090F8240001280DD0012084F824002046AA
:101D6000FEF746FC02004FF0000005D084F8240086
:101D7000104670BD022070BDA16A40F60163994310
:101D800041F48071A162224D23682249AB4218D1EF
:101D90000E6816F4702F14D0A66A46F48016A66258
:101DA0000E68760505D5A66A26F4005646F48056D8
:101DB000A662A66AF6040AD5E66A26F00606E66278
:101DC00006E0A66A26F48016A6625E68E9E7E0628D
:101DD00084F824006FF0020018602068436843F024
:101DE0002003436020688368C3F34243072B05D177
:101DF000A84208D1096811F4702F04D0816841F419
:101E000080118160B4E7816841F4A001F9E7000026
:101E1000002801400424014010B590F82110002250
:101E2000022905D00421816380F82020012010BD03
:101E300001680B6823F00E030B6001680B6823F048
:101E400001030B6090F84030C46B012101FA03F3E9
:101E5000636080F8211080F82020104610BD00003B
:101E60002DE9F05F90F821100024022903D004210D
:101E70008163012485E001680A6822F00E020A608D
:101E800001680A6822F001020A603F4E3E4FB21517
:101E9000DFF8F4C0DFF8F090DFF8ECA0DFF8E8B08E
:101EA000DFF8E4E00168783F13011502ACF1640C3F
:101EB000A9F15009AAF13C0AABF1280BAEF1140EBE
:101EC0004FF48018B14227D9B9420ED0614512D0E3
:101ED00049451DD0514518D0594518D0714501D1FB
:101EE000424615E0294EB14201D1012210E0274EB1
:101EF0001436B14201D110220AE0244E2836B142F4
:101F000006D0224A3C32914201D11A4600E02A46CC
:101F10001E49091F0A602BE0B94213D0614517D052
:101F2000494522D051451DD059451DD0714501D19B
:101F300042461AE0B14202D14FF0807215E0134ED2
:101F4000B14201D1012210E0104E1436B14201D14C
:101F500010220AE00D4E2836B14206D00B4A3C3220
:101F6000914201D11A4600E02A46074980394A6069
:101F7000012180F82110002180F82010416B01B16F
:101F800088472046BDE8F09F8000024008040240D8
:101F900070470000044910B50A68024202D0086088
:101FA000FFF7F6FF10BD0000140401402DE9F84FC3
:101FB000DFF8C891002409F1040A0AF1040B234652
:101FC0000F270BF1040ED1E00125A54006EA05021A
:101FD000AA4276D1DFF8A8C14E68A6EB0C08664588
:101FE0002BD00DDC032E34D005DC36B3012E19D0F6
:101FF000022E2FD11BE0112E16D0122E2AD119E05D
:10200000B8F5881F19D006DCB8F5803F15D0B8F5B3
:10201000801F1FD111E0B8F5001F0ED0B8F5041FC6
:1020200018D10AE0CB6815E0CB681B1D12E0CB6825
:1020300008330FE0CB680C330CE08B682BB1012B1D
:102040004FF0080303D0456104E0042302E005617A
:1020500000E00023FF2A01D8064601E000F1040653
:102060004FEA840501D9A5F12005D6F8008007FACA
:1020700005FC28EA0C0803FA05F548EA0508C6F845
:1020800000804D68ED0070D53E4DAE6946F001060A
:10209000AE61AD6924F0030605F0010500953A4DE7
:1020A00006EB050CDCF80850A607360F07FA06F811
:1020B00025EA0805DFF8D480404503D14FF0000839
:1020C00025E052E0DFF8C880404502D14FF001081A
:1020D0001DE0DFF8C080404502D14FF0020816E055
:1020E000DFF8B480404502D14FF003080FE0DFF87D
:1020F000AC80404502D14FF0040808E0DFF8A08032
:10210000404502D14FF0050801E04FF0060808FAFB
:1021100006F848EA0508CCF808804D68D9F8006050
:10212000ED034D4601D5164300E096432E604D6801
:10213000DAF80060AD03554601D5164300E096433A
:102140002E604D68DBF80060ED025D4601D5164358
:1021500000E096432E604D68DEF80060AD027546E3
:1021600001D5164300E096432E60641C0A681646AB
:10217000E2407FF429AFBDE8F88F00000004014081
:102180000000111000100240000001400008014052
:10219000000C0140001001400014014000180140F3
:1021A000001C01408068084000D001207047C268D0
:1021B00021EA02030A4043EA0241016170470AB181
:1021C000016170470904FBE701488068704700001F
:1021D0003000002002488168027811448160704715
:1021E00030000020074810B5016841F0100101607F
:1021F000032000F089F8032000F006F800F024F82E
:10220000002010BD0020024070B50D4D04464FF473
:102210007A712878B1FBF0F00A490968B1FBF0F057
:1022200000F0E0FB48B9102C07D200222146501ED6
:1022300000F04AF800206C6070BD012070BD000005
:10224000300000203C0000200E4808B5816941F0B4
:1022500001018161816901F001010091C16941F0D1
:102260008051C161C06900F080500090052000F0ED
:102270004BF80548416821F0E06141F00071416090
:1022800008BD0000001002400000014000280DDBE6
:1022900000F01F02012191404009800000F1E02080
:1022A000C0F88011BFF34F8FBFF36F8F70470028C6
:1022B00009DB00F01F02012191404009800000F17C
:1022C000E020C0F800117047F0B40E4B1B680C46BC
:1022D000C3F30223C3F10705042D00D90425191DFA
:1022E000072901D2002300E0DB1E012606FA05F1D2
:1022F000491E214099409E40761E16403143F0BC55
:1023000003F081BF0CED00E0064900F00702086809
:102310004FF6FF03184040EA0220034A10430860CA
:10232000704700000CED00E00000FA0510B52CA489
:1023300001461DCC86B08DE81D002DA02D4C0068F7
:102340000490002004292FD00BDC01292FD0022972
:1023500028D100F071F96168C1F38131491C49004D
:102360001EE0082920D010291CD161682268D20102
:1023700018D5C1F38342C9031DF8020009D561686D
:1023800004AAC1F34041515C1B4AB2FBF1F148433E
:1023900001E01A4948436168490203D4400003211F
:1023A000B0FBF1F006B010BD00F056F9FAE7226A72
:1023B000C2F30121012903D1920701D5C803F1E736
:1023C000022905D1626A920702D549F64040E9E741
:1023D0000329E7D121688903E4D54FF22440E1E7DE
:1023E00002030405060708090A0B0C0D0E0F101056
:1023F000010200000010024000127A0000093D00B6
:102400002DE9F84305460078354CC00754D0E06903
:102410000026C00008D4E06940F08050E061E06927
:10242000012600F0805000902E480168C90512D4A2
:102430000168804641F480710160FFF7C5FE0746E0
:1024400005E000BFFFF7C0FEC01B642823D8D8F802
:102450000000C005F6D5206A10F4407021D0A9888C
:1024600001F4407181421CD0206A1F49012220F4EE
:1024700040700A6000220A602062C00711D0FFF796
:10248000A3FE074641F2883808E000BFFFF79CFE34
:10249000C11B414502D90320BDE8F883206A8007AB
:1024A000F4D5206A696820F44070084320621EB1A8
:1024B000E06920F08050E0612878800705D56068E9
:1024C000A96820F44040084360602878C00605D51C
:1024D0006068696920F48000084360600020DBE7E1
:1024E0000010024000700040400442422DE9F047D5
:1024F0000F46050061D0434E306800F00700B84237
:1025000009D2306820F0070038433060306800F0AE
:102510000700B84251D128683B4C810712D54007CB
:1025200003D5606840F4E06060602878000703D558
:10253000606840F4605060606068A96820F0F00056
:10254000084360602878C00728D06868012810D048
:102550002168022810D0890700292EDA616821F04D
:10256000030101436160FFF72FFE804641F2883985
:102570000DE021688903EFE78901EDE7FFF724FE0D
:10258000A0EB0801494502D90320BDE8F087606847
:10259000696800F00C00B0EB810FEFD1306800F0FB
:1025A0000700B8420BD9306820F00700384330608C
:1025B000306800F00700B84201D00120E5E7287834
:1025C000400705D56068E96820F4E0600843606072
:1025D0002878000706D56068296920F4605040EA31
:1025E000C100606000F038F86168084AC1F3031167
:1025F000515CC8400649086006480068FFF704FEC1
:102600000020C2E700200240001002407A8F00083C
:102610003C00002034000020044805490068496857
:10262000044AC1F30221515CC84070473C000020BD
:10263000001002408A8F0008044805490068496874
:10264000044AC1F3C221515CC84070473C000020DD
:10265000001002408A8F000812A185B00FC98DE8D2
:102660000F0014A0144A006804905168134801F048
:102670000C03042B10D0082B0ED1C1F38343C903E4
:102680001DF803000AD5516804AAC1F34041515C0A
:102690000A4A5043B0FBF1F005B07047084948437F
:1026A000FAE7000002030405060708090A0B0C0DEF
:1026B0000E0F1010010200000010024000127A00FC
:1026C00000093D002DE9F84F040070D02078C04D7E
:1026D000C00749D06868C0F38100012807D0686846
:1026E000C0F38100022809D16868C00306D52868B4
:1026F000800339D560680028E7D035E06068B0F520
:10270000803F0BD010B1B0F5A02F11D0286820F475
:1027100080302860286820F4802002E0286840F497
:1027200080302860606890B1FFF74EFD06460AE0F1
:10273000286840F480202860F0E700BFFFF744FDE0
:10274000801B642873D828688003F7D50CE0FFF756
:102750003BFD064605E000BFFFF736FD801B642801
:10276000F0D828688003F7D420789A4E80074FF07D
:1027700001094FF0000839D5686810F00C0F07D038
:102780006868C0F38100022809D16868C00306D4D4
:102790002868800714D52069012808D110E0206935
:1027A000B0B1C6F80090FFF70FFD074605E00AE15B
:1027B000FFF70AFDC01B0228C4D828688007F7D598
:1027C0002868616920F0F80040EAC10028600DE047
:1027D000C6F80080FFF7F8FC074604E0FFF7F4FCBA
:1027E000C01B022823D828688007F7D42078000768
:1027F0002CD57948A169D9B1C0F80090FFF7E4FC65
:10280000074604E0FFF7E0FCC01B02280FD8686A07
:102810008007F7D571484FF4FA510068B0FBF1F02A
:10282000009000BF0098411E0091FAD20EE080E0B7
:10283000C0F80080FFF7C8FC074604E0FFF7C4FCBF
:10284000C01B022875D8686A8007F7D42078400733
:1028500060D5E8690027C00008D4E86940F08050DE
:10286000E861E869012700F0805000905C48016849
:10287000C90513D40168834641F480710160FFF7F4
:10288000A3FC824606E000BFFFF79EFCA0EB0A0017
:1028900064284ED8DBF80000C005F5D5E0680128B3
:1028A0000AD008B1052813D0286A20F00100286258
:1028B000286A20F0040002E0286A40F00100286243
:1028C000E06841F2883B98B1FFF77EFC82460BE05E
:1028D000286A40F004002862EEE700BFFFF774FCAE
:1028E000A0EB0A0159455AD8286A8007F6D50CE0B2
:1028F000FFF76AFC824605E0FFF766FCA0EB0A01E1
:1029000059454CD8286A8007F6D41FB1E86920F0F1
:102910008050E861E06988B36968C1F381010229E8
:1029200044D00228C6F8608004D0FFF74DFC04466E
:1029300038E034E0FFF748FC074604E0FFF744FCCA
:10294000C01B02282BD828688001F7D4206AB0F574
:10295000803F05D16868A16820F4003008436860B2
:10296000D4E908010843696821F4741108436860D8
:10297000C6F86090FFF728FC044606E025E000BF9B
:10298000FFF722FC001B022809D828688001F7D530
:102990001BE000BFFFF718FC001B022802D9032030
:1029A000BDE8F88F28688001F4D40EE00128F7D044
:1029B0006868226A00F48031914204D1616A00F4AF
:1029C0007010884201D00120EAE70020E8E700000B
:1029D0000010024000004242800442423C000020BD
:1029E0000070004010B5401EB0F1807F01D301207F
:1029F00010BD4FF0E02460610F21601703F003FC6D
:102A00000020A06107202061002010BD70477047A2
:102A100010B590F83C20012A22D0012280F83C20F9
:102A2000CA688C6822F4407222434C6822F48062A7
:102A300022430C6822F4006222430C6922F4805283
:102A400022434C6922F400522243C969002322F434
:102A500080420A4301684A6480F83C30002010BD7F
:102A6000022010BD70B590F83C20012A2CD0012422
:102A700080F83C40022280F83D2003685A689D6837
:102A800022F070060A6832435A60104B02689A427C
:102A90000ED00F4B9A420BD0B2F1804F08D00D4BA5
:102AA0009A4205D00C4B9A4202D00C4B9A4204D168
:102AB000496825F080031943916080F83D4000216A
:102AC00080F83C10084670BD022070BD002C01400B
:102AD000003401400004004000080040000C0040A9
:102AE00010B5040003D094F83D0010B107E00120B8
:102AF00010BD002084F83C00204600F01FF80220A2
:102B000084F83D00211D206803F042F8012084F87C
:102B1000460084F83E0084F83F0084F8400084F8C2
:102B2000410084F8420084F8430084F8440084F8AB
:102B3000450084F83D00002010BD000008B5006885
:102B40000B49884212D10B48C16941F00801C161AB
:102B5000C069012200F00800009002213220FFF736
:102B6000B3FBBDE808403220FFF7A1BB08BD000061
:102B7000000C00400010024090F83D10012901D0E7
:102B800001207047022180F83D100168CA6842F0B8
:102B90000102CA6000680E4988420ED00D49884281
:102BA0000BD0B0F1804F08D00B49884205D00B49BB
:102BB000884202D00A49884204D1816801F00701A5
:102BC000062903D0016841F001010160002070472F
:102BD000002C014000340140000400400008004087
:102BE000000C004070B5044690F83C00012817D056
:102BF000012584F83C50022084F83D00206882685A
:102C000022F0770222F47F4282600868502830D098
:102C10000DDC20284DD005DC98B310283BD148E0CE
:102C2000022070BD302844D0402834D139E06028DB
:102C300028D0702806D0B0F5805F2CD0B0F5005FAA
:102C400029D10AE0CB68D1E90121206802F0F3FF25
:102C50002068816841F0770109E0CB68D1E9012162
:102C6000206802F0E8FF2068816841F480418160BB
:102C700011E0CA684968206803F0B2F85021206862
:102C800007E016E0CA684968206803F0BAF86021D6
:102C9000206802F0DAFF84F83D50002084F83C0000
:102CA00070BDCA684968206803F09AF8402120681E
:102CB000EFE7226801461046EBE72DE9F0410D46AB
:102CC000040003D094F83D0018B108E00120BDE8ED
:102CD000F081002084F83C00204600F041F80220FA
:102CE00084F83D002068816844F2070291438160C6
:102CF000211D206802F04CFF226890689169166AD5
:102D00002B68AF69034340F20330814341EA072156
:102D1000A868EF6908434FF6FC418843E96840EA38
:102D20000720014328692F6A000140EA0730084361
:102D300069686D6926F0220646EA05152943936005
:102D40002268906154F8460B0162012004F81F09C3
:102D5000E0752076E0762077A0750020B7E70000C8
:102D600000B585B000210091019102910391224BA1
:102D700002682248C0219A421BD1C26942F0040273
:102D8000C261C26902F004020492826942F0080240
:102D900082618069009100F008000490694618483B
:102DA000FFF704F9032201211E20FFF78DFA1E20F0
:102DB0001DE0144B9A421CD1826942F40052826198
:102DC000826902F400520492826942F01002826128
:102DD0008069009100F01000049069460A48FFF7EE
:102DE000E5F8032201212C20FFF76EFA2C20FFF7D3
:102DF0005EFA05B000BD000000080040001002406F
:102E0000000C0140003401400010014070B590F802
:102E10003E60044690F83F5090F8423090F84320CE
:102E2000022021B104290ED0012E1BD114E0012E65
:102E300018D1012B16D184F83E0084F842000122FB
:102E40000021206820E0012D0CD1012A0AD184F84C
:102E50003F0084F8430014E0012D03D1012B01D180
:102E6000012A01D0012070BD84F83E0084F83F00A3
:102E700084F8420084F8430001220021206802F017
:102E8000CDFE01220421206802F0C8FE20680168FE
:102E900041F001010160002070BD00002DE9F0410A
:102EA0005C4C012700260546A0427DD1287F0228E0
:102EB00020D1A4F130000178002973D10189804626
:102EC000491C018140784FF004010028204615D0AC
:102ED00000F03EFBD8F804200146891AC8F8041017
:102EE00021680A6A22F0A0020A6221680A6A0A625C
:102EF00088F80160287F042814D034E000F028FB13
:102F00000146C8F80410A8F8086021680A6A22F08F
:102F1000A0020A6221680A6A42F020020A6288F866
:102F20000170E7E73B482438017800293AD101894C
:102F30008046491C018140784FF00801002835483F
:102F400033D000F005FBD8F804200146891AC8F8F0
:102F5000041021680A6A22F400720A6221680A6A6F
:102F60000A6288F80160287F08281BD1294D183D86
:102F70002878002816D128894FF00C01401C2881A0
:102F800068780028234835D000F0E2FA6968401AD2
:102F900068602068016A21F4005101622068016ABA
:102FA00001626E70BDE8F08113E000F0D1FA0146D5
:102FB000C8F80410A8F8086021680A6A22F40072B0
:102FC0000A6221680A6A42F400720A6288F8017093
:102FD000C9E7114CA542E5D1007F0828E2D10D4D8B
:102FE0000C3D28780028DDD168784FF00C010028CE
:102FF0002046C9D100F0ACFA68602E812068016AD1
:1030000021F4005101622068016A41F4005101621B
:103010006F70C7E7700A0020E402002070B5044614
:10302000006801694FF00005C943890715D4C168DC
:10303000C943890711D4E91E016101202077206866
:1030400080698007204602D0FFF728FF04E000F0E7
:10305000E3F8204600F092F9257720680169C9431A
:10306000490717D4C168C943490713D46FF0040155
:103070000161022020772068806910F4407F20469B
:1030800002D0FFF70BFF04E000F0C6F8204600F086
:1030900075F9257720680169C943090716D4C16805
:1030A000C943090712D46FF0080101610420207799
:1030B0002068C0698007204602D0FFF7EFFE04E0D9
:1030C00000F0AAF8204600F059F925772068016938
:1030D000C943C90617D4C168C943C90613D46FF0E0
:1030E00010010161082020772068C06910F4407F3A
:1030F000204602D0FFF7D2FE04E000F08DF8204613
:1031000000F03CF9257720680169C943C90708D157
:10311000C168C943C90704D1891E0161204600F076
:1031200089F920680169C943090609D4C168C943FE
:10313000090605D46FF0800101612046FFF766FCA7
:1031400020680169C943490609D4C168C9434906D1
:1031500005D46FF040010161204600F00EFA2068AE
:103160000169C94389060BD4C168C943890607D4DC
:103170006FF0200101612046BDE87040FFF747BCB9
:1031800070BD000030B585B0002100910191029121
:1031900003911C4B02681C49022503241B489A42D8
:1031A0000DD18A6942F004028A618969039401F0B1
:1031B000040104918115CDE9001569461EE0144B08
:1031C0009A421DD18A6942F004028A618A6902F03A
:1031D000040204928A6942F008028A6189690394B0
:1031E00001F008010491C021CDE900156946FEF700
:1031F000DDFECDE90045694606480394FEF7D6FE9C
:1032000005B030BD002C0140001002400008014014
:1032100000040040000C0140704770B5044690F86F
:103220003C000D4601280AD0012084F83C0042B140
:10323000042A18D0082A2AD00C2A4DD139E00220BD
:1032400070BD206802F00AFD2068816941F0080124
:1032500081612068816921F00401816120688169B0
:103260002A69114311E0206802F028FD2068816975
:1032700041F4006181612068816921F4806181618C
:10328000206881692A6941EA0221816124E020687D
:1032900002F04AFD2068C16941F00801C16120685F
:1032A000C16921F00401C1612068C1692A69114323
:1032B00011E0206802F06CFD2068C16941F40061F2
:1032C000C1612068C16921F48061C1612068C16960
:1032D0002A6941EA0221C161002084F83C0070BDE6
:1032E00010B5040003D094F83D0010B107E00120B0
:1032F00010BD002084F83C00204600F01FF802209A
:1033000084F83D00211D206802F042FC012084F871
:10331000460084F83E0084F83F0084F8400084F8BA
:10332000410084F8420084F8430084F8440084F8A3
:10333000450084F83D00002010BD000008B50C4A8F
:1033400001680C48914207D1816941F400618161B3
:10335000806900F4006009E0074A914207D1C16921
:1033600041F00201C161C06900F00200009008BD97
:10337000002C014000100240000400407047000093
:1033800010B50446022249B104290ED0082913D0F1
:1033900094F84100012816D0012010BD94F83E0099
:1033A0000128F9D184F83E200FE094F83F0001286D
:1033B000F2D184F83F2008E094F840000128EBD1D6
:1033C00084F8402001E084F841200122206802F0C6
:1033D00025FC13492068134A884201D0904203D14A
:1033E000436C43F400434364206888420DD090420C
:1033F0000BD0B0F1804F08D00B49884205D00B4963
:10340000884202D00A49884204D1816801F007014C
:10341000062903D0016841F001010160002010BDC0
:10342000002C01400034014000040040000800402E
:10343000000C00402DE9F0413D49884276D1FEF76D
:10344000BDF8FDF735FF3B490878002558B13A48EB
:103450000278521CD2B202700A2A02D002780A2ADA
:1034600001D905700D70354C207860B3012849D022
:1034700002284AD003284BD004284CD0A078401C06
:10348000C0B2A070042849D000D9A570D4E90201C7
:10349000FDF7A2FF02F0C8FC294E06F1100780B329
:1034A000756040F2DC507D602061786805F0AEFA0E
:1034B0000446706880F0004005F0A8FA2146BDE897
:1034C000F04101F00FBE1F480078012813D01E48BC
:1034D0000078012812D01D4800780128D6D16078E4
:1034E000401CC0B260700A28D0D103F069FC02F021
:1034F000BBFD6570CAE7FDF7ADF9C7E701F0DEFB7C
:10350000C4E710E000F0B0FCC0E700F06BFDBDE7E1
:1035100000F024FEBAE7FDF797FCB7E7A570FDF7CA
:1035200065FAB3E702E0FDF721FFBEE7BDE8F081F1
:10353000BC030020060000200500002088000020B9
:103540009C09002001000020000000200200002053
:103550000246002041B1042909D008290AD00C29CB
:1035600001D11068006C70471068406B704710689C
:10357000806B70471068C06B70477047704770472A
:10358000F8B5026804461068D168536910F00F0F4F
:103590004FF0000553D003F0010601F49077374354
:1035A0005FD0C20705D0CA0503D5226C42F00102E4
:1035B0002264420705D5DA0703D0226C42F00202EA
:1035C0002264820705D5DA0703D0226C42F0040298
:1035D0002264020707D501F02002324303D0226C97
:1035E00042F008022264226C002A34D0800604D5FE
:1035F000880602D5204602F05DFC20684069216CF7
:10360000C0F38010090700D430B3204602F03AFC22
:103610002068416949061BD5416921F0400141619B
:10362000A06BA8B158494163A06BFEF719FC0028B4
:1036300011D0A06B416B01B0BDE8F0400847830694
:103640000FD58B060DD52046BDE8F84002F032BC00
:103650002046FFF794FFF8BD2046FFF790FF256452
:10366000F8BD266B2023012E52D1C60650D5CE06BA
:103670004ED5106850680090506940062AD5A16B5D
:10368000086840680004000CEAD0A68D8642E7D99D
:10369000E0858869202818D0D06820F48070D06038
:1036A0002068416921F0010141612068416921F0F0
:1036B0004001416184F83E3025632068C16821F0F3
:1036C0001001C160A06BFEF7A7FBA08DE18D401A31
:1036D00081B219E0A08DE18D401A81B2E08D002801
:1036E000BED00029BCD0D06820F49070D060206893
:1036F000426922F00102426184F83E30256320686D
:10370000C26822F01002C2602046FFF737FFF8BD02
:1037100005062BD50D0629D594F83D002128F6D1B4
:10372000A068B0F5805F01D12069B0B1206A411C6A
:103730002162216800784860E08C401E0004000C83
:10374000E084E4D12068C16821F08001C160206874
:10375000C16841F04001C160F8BD206A0088C0F333
:1037600008005060206A801C2062E5E74006F3D51F
:103770004806F1D5D168204621F04001D16084F897
:103780003D3000F00FFBF8BD755E000870B5040019
:1037900004D094F83D00002510B106E0012070BD72
:1037A00084F83C50204600F023F8242084F83D00A3
:1037B0002068C16821F40051C160204602F0D6FBA8
:1037C0002068016921F4904101612068416921F07C
:1037D0002A0141612068C16841F40051C16025643B
:1037E000202084F83D0084F83E00002070BD0000D9
:1037F00070B586B000240094019402940394474D60
:103800000368474802210322AB422ED1C36943F427
:103810008013C361C36903F480130493836943F085
:1038200010038361836903F010030493836943F0F9
:10383000200383618069039200F020000490C80295
:10384000CDE9000169463748FEF7B0FB0420CDE919
:103850000004694634480294FEF7A8FB0122114691
:103860003520FEF731FD352029E0304E3515B342C5
:1038700029D1836943F480438361836903F48043DE
:103880000493836943F0040383618069284E00F048
:10389000040004906810CDE90001039269463046A7
:1038A000FEF784FBCDE90054694630460294FEF7EA
:1038B0007DFB012211462520FEF706FD2520FEF79F
:1038C000F6FC06B070BD1B4EB342FAD1C36943F497
:1038D0008023C361C36903F480230493836943F0A5
:1038E000080383618069CDE9005100F00800CDE94B
:1038F0000320114D69462846FEF758FBE814CDE930
:103900000004694628460294FEF750FB0122114646
:103910002720FEF7D9FC2720D1E700000050004007
:103920000010024000100140001401400038014026
:103930000008014000480040000C014090F83E3073
:10394000202B0ED159B152B190F83C30012B08D048
:10395000012380F83C300023036302F063BB0120A5
:1039600070470220704700002DE9F05F0446F248DE
:103970000126DFF8C8A30025DFF8C483844245D1BF
:1039800008F10800F24F0178EE487B290670EE48F6
:103990000570EE48057098F800204046B95400D0F4
:1039A0002AB1521CD1B201700B2903D028E088F84B
:1039B000005025E088F80050B87A7D2820D10021F9
:1039C0000920FDF7D5F8797A884219D13979F87844
:1039D00002F0FCFBDFF87CB3CBF80000397AF87911
:1039E00002F0F4FB01469AF80000DFF86C9301281E
:1039F00028D0397AF87902F0E9FB00BFC9F8000055
:103A0000CF490122C91DCC48FFF798FFD3480222B5
:103A100084427DD1CA4844460830DFF8489307788D
:103A2000C948C8F81070DFF83883017879B1DFF839
:103A300020B3A7F14100ABF1640B072821D8401C4B
:103A4000E07272E0DBF8000002F082FBD6E7412F63
:103A500001D0E560C9E0E168491CE16005290DD1AC
:103A6000E5600670B948C0490570C8F800109AF8BA
:103A70000000012803D0BD49C9F80010B5E0BC49D9
:103A8000FAE75A2F03D00A2F03DCE7724DE0E57204
:103A90004BE0B849592F06D0582F23D07B2F4AD05E
:103AA0007D2F4FD041E0D8F8000005F053F9B2491E
:103AB000C8F80000884201DAC8F800109AF800003F
:103AC000012832D0D9F8000004F03EFEAB4AAC4BDE
:103AD00004F050FD04F04CF8AA49C9F800008842EF
:103AE00021DB22E0D8F8000004F05AFEA649C8F80D
:103AF0000000884201DDC8F800109AF80000012893
:103B000013D0D9F8000004F01FFE9C4A9C4B00E043
:103B100070E004F05FF804F02BF84FF07E51C9F824
:103B20000000884201DDC9F800106078012803D048
:103B3000022808D059E06670A0780BF80070401C8D
:103B4000A07052E062709BF803105846502906D0CE
:103B50004178232940D0A178E170DA4627E0A672A7
:103B60003AE0A178081A04F078FA02460B460020E1
:103B7000864903F095FAE77806460AEB070089467E
:103B800010F8010C303804F068FA32464B4604F065
:103B9000CBFA06468946606904F0D6FD4B463246AC
:103BA00004F018F803F0E4FF7F1E6061E770E0782E
:103BB0000428D6D29AF80100303802280CD2DFE867
:103BC00000F001056169C8F8001005E070496069FE
:103BD00004F05AFE6F4908606570A5705C48E57096
:103BE000322164386561FCF7D5FB55490122083163
:103BF0005A4887E06848844273D1514898F80430A5
:103C0000093066490078664F44464FF0030C052B97
:103C100058D92A2B2CD2B3FBFCF20CFB1232A2B1E6
:103C2000B3FBFCF20CFB1232012AA27913D002EB97
:103C300042052944521C0872A2715B1C23716179F0
:103C40004140785C88F8050058E0A27902EB420216
:103C50001144C88006E002EB42021144CA8802EB1C
:103C60000022CA805B1C237161794140785C44E08A
:103C70002A3B052B42D2DFE803F003060C0F1500A8
:103C800048852B2154E04A8D02EB00224A852C21E5
:103C90004EE088852D214BE08A8D02EB00228A853B
:103CA0002E2145E081F82E006179884202D102F090
:103CB00047FF03E02F213948FCF74AFB6571257166
:103CC000A5711BE0062B19D2DFE803F0030F2024B7
:103CD0002A2D542806D108702671607980F054008E
:103CE0000AE027E02571657108E02C28FAD14870B8
:103CF0002271607980F02C00385C607110490122DB
:103D000025480931BDE8F05FFFF718BE488084F808
:103D100004C0A9E74A8802EB00224A80042107E098
:103D20008880052104E08A8802EB00228A8006212F
:103D3000217199E7BDE8F09F900400200700002062
:103D4000C800002002000020010000200000002028
:103D5000200A00209000002094000020D4040020BD
:103D6000AC000020B00000200000AF4300009242F1
:103D70007CD9203F0000C841000052439A9999998C
:103D80009999B93F7CD9203E000048440000244066
:103D900000007A44C00000204C040020381F00209E
:103DA000F69900087047FEE72DE9F04104F0C7FFDF
:103DB0000D4F05460146786804F0C4FE07F1800403
:103DC00006462846E16E04F0C5FF396804F0BAFEE5
:103DD000314604F0E5FCA16E04F0E2FCC4E91A05EA
:103DE000BDE8F04104F012BEFC0000202DE9F041D6
:103DF00004F0A5FF0D4F05460146786804F0A2FEC9
:103E000007F1800406462846A16F04F0A3FF396835
:103E100004F098FE314604F0C3FC616F04F0C0FC6E
:103E2000C4E91D05BDE8F04104F0F0BDFC00002030
:103E300010B50B4B60B10B4C2168491C21608142CD
:103E400005DB04211846FEF7B2F90020206010BD02
:103E50000122BDE8104004211846FEF7B0B9000069
:103E600000100140480000202DE9F84F4D48002483
:103E7000A2460578264627464FF4AF78012D02D09A
:103E8000032D03D005E04FF4C87001E04FF4FA7041
:103E900080464648DFF810B1D0F800902BE000BF14
:103EA00004EB44010BEB4101414AD1F80200414BC4
:103EB00002449A421ED309880091D9B1414519DACA
:103EC0000AF1010101F0FF0A39494942884202DA48
:103ED0000146304606E03849884206DD374904F09D
:103EE00039FF314604F05CFC06460098C82801D230
:103EF0007F1CFFB2641C4C45D2DBDFF8C4B0314CF0
:103F00004FF00008BAF1080F11D2A06804F01CFCB1
:103F10002D4A5B4603F05EFE03F02AFE2B49A060AB
:103F2000884200DBA1604046C4F80C8035E0284898
:103F3000DFF8A0904FF4000A012D03D0082F17D905
:103F4000A060F0E7082FFBD8A06804F0FDFB1E4A34
:103F50005B4604F00FFB03F00BFEA060484501DA5E
:103F6000C4F80890564501DB1B4815E01B4813E0D8
:103F7000A06804F0E9FB144A5B4604F0FBFA03F086
:103F8000F7FDA060484501DAC4F80890564501DB0A
:103F9000134801E04FF07E50E06080F00040E060A8
:103FA000BDE8F88F07000020D81500201000002081
:103FB0000000B8BD0100530100009B430000B44362
:103FC0009999B93F880000209A9999999A99993EB0
:103FD0009A9999BE9A99193E7CD920BF7CD9203FE5
:103FE000000080BF2DE9F047484C4A4B4FF00008D5
:103FF0004FF6FF754246464940F24B4760691E68DE
:1040000012E000BF02EB420301EB4309B9F80030B4
:10401000A3F1650CBC4506D208F10108AB4202D2FF
:10402000D9F802001D46521CB242EBDB3A496061EE
:10403000884203DD394904F08DFE60610746A169BD
:1040400004F088FE36490026884202DC3549884261
:1040500005D96079401CC0B260713C2801D16671FD
:10406000A761B8F1060F0ADAE088282804D2401CBC
:1040700080B2E08028283AD3A660E66037E02A487C
:10408000E680DFF8A880007801280FD02848874212
:1040900002DC284887421ED9B5F5C87F1BD92649BE
:1040A000A06904F04FFDC4E9026020E023483918FC
:1040B0002348814203D32349394481420BD2B5F5C9
:1040C000FA7F08D22048A0600021A069FDF754F8CB
:1040D00080F000400AE0284604F0ECFC4146FCF782
:1040E00035FEA0600021A069FDF746F8E060174AA0
:1040F0001749E06803F018FDE060164A1649A06809
:1041000003F012FDA060BDE8F087000088000020E9
:10411000D815002010000020000034430000B443F4
:1041200000002041000020C1070000200000C8431B
:1041300000004842000048C2211FF4BCFFFF8FBEB0
:10414000FFFFC301FFFF8F3ECDCC4CBE920A063F5E
:10415000920A06BF9A99193F9A9919BF2DE9F0471B
:10416000204C244D0021D4E907021F4B1F4FDFF8DC
:1041700080C02E6813E000BF01EB410503EB45054D
:10418000D5F80280B844E04508D20AB9288801224F
:104190002D8800F16408454500D2A946491CB1426A
:1041A000EADB4FF07A51A160C4E9070204F082FC17
:1041B0000546484604F07EFC2946FCF7CDFA0E4938
:1041C00080F00040E0600978012908D0002904D17E
:1041D0000A4A0B4903F0A8FCE060BDE8F087094AF1
:1041E0000949F7E788000020D8150020FFFF69BDC6
:1041F000FFFF030010000020070000207CD9203FB3
:104200007CD920BFDB0F493FDB0F49BF3EB5002102
:10421000124800910191104A02910260816001737D
:10422000017501244FF460220461C2614160FDF711
:1042300093FB08B1FCF71CFF0A20CDE9000407201E
:10424000029069460548FDF76FFA08B1FCF710FFC8
:104250000248FDF7FBF93EBD002401408402002026
:104260003EB50021144800910191124A029102606A
:1042700081600173017501244FF460220461C26101
:104280004160FDF769FB08B1FCF7F2FE0B20CDE9B8
:1042900000040720029069460748FDF745FA08B177
:1042A000FCF7E6FE0448FDF7D1F90348FDF74EFDA3
:1042B0003EBD000000280140B40200202DE9F04F6F
:1042C00085B00024574800940194029403948169B6
:1042D00041F010018161816901F01001049181694F
:1042E00041F020018161816901F02001049181691F
:1042F00041F004018161816901F004010491816947
:1043000041F0080181618069DFF81C9100F008002C
:104310000490012244F210314846FDF750FF01227B
:104320000C214846FDF74BFFDFF800B100224FF4A7
:1043300040415846FDF743FFDFF8F4A04FF4004832
:10434000002241465046FDF73AFF012238215846E7
:10435000FDF735FF4FF40050CDE9000469464846AB
:104360000294FDF723FE48F21C3001250226CDE918
:104370000005CDE9024669464846FDF717FEA80349
:104380000327CDE90005CDE9024769464846FDF718
:104390000DFE40F60F00CDE9000469465046029438
:1043A000FDF704FE4CF23800CDE90005CDE90247E7
:1043B00069465846FDF7FAFDCDF800800397CDE930
:1043C000015469465046FDF7F1FD2803CDE900058B
:1043D000CDE9024669465046FDF7E8FD28028DE822
:1043E000310069465846FDF7E1FD6802009011482A
:1043F000CDE9010569465846FDF7D8FD3803CDE9FA
:104400000005CDE9024669465846FDF7CFFD012279
:1044100002211720FDF758FF1720FDF737FF05B0E1
:10442000BDE8F08F0010024000100140000C014078
:10443000000801400000211010B592B000240F9434
:104440001C2108A81094FBF7A5FF20216846FBF764
:10445000A1FF2348214901604721C0E9011442F22C
:104460000F71C0E903148021C0E90541FEF738FF50
:1044700008B1FCF7FDFD0F940FA919481094FEF741
:10448000F1FA08B1FCF7F4FD6020CDE908040A94C4
:104490000B940C940D94002208A911480E94FEF779
:1044A000BCFE08B1FCF7E4FD00944FF40050CDE9E8
:1044B0000440029401940394694609480794FEF766
:1044C000A7FA08B1FCF7D4FD00210548FEF758FF14
:1044D0000348FEF757FE12B010BD0000002C01404B
:1044E000E402002010B58AB0002407941C2168461D
:1044F0000894FBF74FFF2A482849C0E9001441F609
:104500001F41C0E90241802104618161FEF7E8FE9C
:1045100008B1FCF7ADFD079407A921480894FEF700
:10452000A1FA08B1FCF7A4FD6020CDE900040294D3
:10453000002269461A480494FEF76FFE08B1FCF7A2
:1045400097FD042269461648FEF767FE08B1FCF79E
:104550008FFD082269461248FEF75FFE08B1FCF79E
:1045600087FD0C2269460E48FEF757FE08B1FCF79E
:104570007FFD00210A48FEF703FF04210848FEF7EB
:10458000FFFE08210648FEF7FBFE0C210448FEF75B
:10459000F7FE0348FEF7F6FD0AB010BD0004004028
:1045A0002C03002010B58CB024216846FBF7F2FEE6
:1045B00000241A48099418490A94C0E900144FF6D7
:1045C000FF71C0E902418021046181610320CDE9CE
:1045D00000040120CDE902040A210491CDE905403F
:1045E000CDE9074169460D48FEF767FB08B1FCF7C6
:1045F0003FFD099409A909480A94FEF733FA08B166
:10460000FCF736FD00210548FEF700FC04210348B5
:10461000FEF7FCFB0CB010BD000800407403002046
:1046200010B586B0002418480094019402940394B5
:1046300004941449059401603121C0E9011441F644
:104640001F41C0E9031480218161FEF749FA08B1D6
:10465000FCF70EFD4FF48050009069460A48FEF7C3
:10466000C1FA08B1FCF704FD049404A906480594B6
:10467000FEF7F8F908B1FCF7FBFC0348FEF77CFAFB
:1046800006B010BD000C0040BC03002010B58CB07B
:1046900024216846FBF77EFE00241B480994194933
:1046A0000A94C0E900144FF6FF71C0E9024180216D
:1046B0000461C0E905410320CDE900040120CDE9F2
:1046C00002040A210491CDE90540CDE9074169467C
:1046D0000D48FEF7F2FA08B1FCF7CAFC099409A9E3
:1046E00009480A94FEF7BEF908B1FCF7C1FC0021A5
:1046F0000548FEF78BFB04210348FEF787FB0CB04F
:1047000010BD000000340140040400200E4810B524
:104710000C4901604FF4E1314160002181600C22BD
:10472000C160C0E904128161C161FFF72FF808B1CF
:10473000FCF79EFCBDE81040012204490248FFF747
:10474000FDB80000005000404C040020D1000020C3
:104750000E4810B50C4901604FF4E1314160002171
:1047600081600C22C160C0E904128161C161FFF760
:104770000DF808B1FCF77CFCBDE8104001220449AB
:104780000248FFF7DBB80000003801409004002029
:10479000CF0000200E4810B50C4901604FF41651AF
:1047A0004160002181600C22C160C0E90412816176
:1047B000C161FEF7EBFF08B1FCF75AFCBDE8104001
:1047C000012204490248FFF7B9B800000048004040
:1047D000D4040020D000002070B502460020104D07
:1047E000012100BF55F8213005EB8104491CC9B2F5
:1047F00044F8043C0A29F5D300246A6255F82410D1
:1048000003F0CEFF641CE4B20A2CF7D3054904F090
:104810003BF804F0FBF8BDE8704004F033B9000049
:104820004C0900200000204170B502460020104DC8
:10483000012100BF55F8213005EB8104491CC9B2A4
:1048400044F8043C0A29F5D300246A6255F8241080
:1048500003F0A6FF641CE4B20A2CF7D3054904F068
:1048600013F804F0D3F8BDE8704004F00BB9000071
:104870007409002000002041FEE7FEE710B400218B
:10488000084B0A465FF0000003EBC004401CC0B2B6
:1048900062548028F8D3491CC9B20829F2D310BC4D
:1048A00000F0B0B81805002010B57F2816D83F29B1
:1048B00014D80723A3EBD10301F00701C1F10704CA
:1048C0000121A140064CDBB204EBC000002AC25C0F
:1048D000C9B201D00A4300E08A43C25410BD0000AF
:1048E000180500202DE9F04116460D460746002424
:1048F000FFF7DAFF324629463846FFF7D5FF281979
:10490000C1B232463846FFF7CFFF641CE4B2082C30
:10491000F5D3BDE8F081000010B5394C0020C4F893
:104920009001642004F5C87401F0A8F8012020600B
:104930000021AE2000F04AF90021D52000F046F910
:104940000021502000F042F90021A82000F03EF99B
:1049500000213F2000F03AF90021D32000F036F981
:104960000021084600F032F90021402000F02EF925
:1049700000218D2000F02AF90021142000F026F9F2
:104980000021202000F022F90021022000F01EF971
:104990000021A12000F01AF90021C02000F016F932
:1049A0000021DA2000F012F90021122000F00EF9A7
:1049B0000021812000F00AF90021EF2000F006F923
:1049C0000021D92000F002F90021F12000F0FEF8CA
:1049D0000021DB2000F0FAF80021302000F0F6F88A
:1049E0000021A42000F0F2F80021A62000F0EEF84B
:1049F0000021AF2000F0EAF8BDE81040FFF73EBF0D
:104A00000080214270B5114E002400BF04F1B000B7
:104A1000C0B2002100F0DAF80021084600F0D6F814
:104A20000021102000F0D2F85FF0000506EBC50071
:104A30000121005D00F0CAF86D1CEDB2802DF5D3A8
:104A4000641CE4B2082CE1D370BD000018050020FE
:104A50002DE9FF4F203A1F460C46894602F0FF0A17
:104A60000025DDF834B032E00C2F09D01A4901EBF3
:104A70000A104FF00008465D300607D55A4609E097
:104A800016490AEB4A0001EB8000F2E7BBF1000F88
:104A900012D0002221460098FFF706FF7006641C22
:104AA000060EE4B2A4EB0900B84207D100984C46C8
:104AB000401CC0B2009008E00122EBE708F10100C1
:104AC00000F0FF08B8F1080FD6D36D1CEDB2BD425F
:104AD000CAD3BDE8FF8F000006940008928F00083B
:104AE0002DE9FF4F81B00026DDF838A01D46934622
:104AF000814634464FF001084FEA5A0727E0281B49
:104B0000401EC1B20A2002F0C2FABBFBF0F00A213B
:104B1000B0FBF1F201FB120026B9691E8C4201DAEA
:104B200048B101263030C2B207FB0490C0B25346F0
:104B3000CDF8008006E007FB0490C0B25346202267
:104B4000CDF800800299FFF783FF641CE4B2AC4209
:104B5000D5D305B0BDE8F08FF8B516460D4604462E
:104B6000012714E07A2C02D900241035EDB23A2D39
:104B700003D900242546FFF781FE009732780C23E5
:104B800029462046FFF764FF0834E4B2761C3078EB
:104B90000028E7D1F8BD000070B50A4D0A4E002488
:104BA00035F814003178884201D2012200E0002259
:104BB00000212046FFF796FE641CE4B2802CEFD360
:104BC00070BD0000B80A0020E600002070B5002586
:104BD0000E4A012311B1C2F88C3101E0C2F88C51A8
:104BE0000B4C0021C4F8B851060602D5C2F8943126
:104BF00001E0C2F89451C4F8B8314006491C000ED7
:104C0000C9B20829EED3C2F88C3170BD00802142B0
:104C1000000022420020044902460A54401CC0B24F
:104C20000928FAD370470000420900202DE9F84F07
:104C300001248246ADF800401D4800254570ADF8BE
:104C400000401C4E1C4F81464FF6FF7826E000BF07
:104C5000BDF8001011EA0A0F02D0C6F8A44101E025
:104C6000C6F8A451C6F8A041052000F023FFC6F8FD
:104C7000A051052000F01EFFC6F8A041D7F8200182
:104C800030B199F80110BDF80020114389F80110E6
:104C9000BDF8000008EA4000ADF80000BDF80000D3
:104CA000FF28D5D9BDE8F84F102000F003BF000061
:104CB0004209002000002242008021422DE9F05FDD
:104CC0005149504809680068C1F18005C0F1800071
:104CD0006FF01301884202DD142800DA00208D42B3
:104CE00002DD142D00DA002503F0CCFE474C064609
:104CF0006FF0060A606A5146834604F000F93146B7
:104D000003F020FF0746A06041484FF03C4806787A
:104D10002046012ED0F8289002D017F1FF4F08D27C
:104D2000284603F0AFFE05464146484603F00AFF19
:104D300007E0284603F0A6FE05465146484604F023
:104D4000DEF8294603F0FEFE324AE06000201368D8
:104D50003149324DDFF8C8800B2B0DD00C2B2ED0F3
:104D600020713049384603F08FFDA060E06880F084
:104D70000040E060BDE8F09FE3785B1CDBB2E370CD
:104D8000142BEED11060E070584603F009FD014687
:104D900060622548814200DD6062012EE1D0484614
:104DA00003F0D2FC2A46434602F014FF02F0E0FE74
:104DB0004FF07E51A0628842D3DDA162D1E7237912
:104DC0005B1CDBB22371142BCBD1106020715846D1
:104DD00003F0C0FF014660621448814200DA60625D
:104DE000012EBED0484603F0AFFC2A46434603F0EE
:104DF000C1FB02F0BDFE0146A0620D488142B0DA5F
:104E0000A062AEE7580000205C000020880000206F
:104E100007000020640000200000C8419A99999979
:104E20009999B93F00007A44000048440000524379
:104E30007CD9203E70B5FFF7EDFE00F05DF80B4821
:104E40000B4BB0F803100A481C33418000200124AA
:104E500013F8105000F101006D1E04FA05F20A4229
:104E6000C0B202D01028F3D3002070BD4209002048
:104E70004C00002010B5FFF7DDFF1549154A886189
:104E8000D3798B60137ACB6054790C6192794A6143
:104E90000124114A042801D11078A8B148680028DB
:104EA00011D0762B0FDA107800280CD10B49147032
:104EB00008700C490A4808600B4801780B48012922
:104EC00004D00B49016010BD4C60EAE70949F9E7DD
:104ED0004C000020420900200000002001000020BA
:104EE0000000AF43AC00002007000020B00000200D
:104EF00000009242DB0F493F2DE9FC4700248DF86A
:104F000000400125ADF80450254EC6F89041254FCC
:104F10003878FFF78BFE7878FFF788FE02208DF84F
:104F20000000214FDFF884904FF6FF7830E000BF9B
:104F3000ADF8045020E000BFC6F8A051052000F0F5
:104F4000B9FDC6F8A041052000F0B4FDC6F8A05197
:104F5000D7F8200150B19DF80010BDF8042019F8D1
:104F6000011011439DF8002009F80210BDF804104B
:104F700008EA4100ADF80400BDF80400FF28DBD9C1
:104F8000102000F097FD9DF80000401C8DF80000F7
:104F90009DF800000928CBD3C6F89051BDE8FC87E6
:104FA000000022424C0000200080214242090020E3
:104FB00070B504461546084603F064FD06462846CB
:104FC00003F060FD05463046214603F087FD00D220
:104FD00034462846214603F081FE00D22C46204666
:104FE00070BD70472DE9F0470027214C01253E4652
:104FF000C4F894513946C4F8907104F5C874FBF7AD
:10500000EDFEFBF7EBFE61602160FBF7E7FEFBF7CF
:10501000E5FE61602560FBF7E1FEFBF7DFFE656002
:105020002560FBF7DBFEFBF7D9FE65602160A4F588
:10503000C874FBF7D3FEFBF7D1FEDFF83890884643
:10504000C4F89481FBF7CAFEFBF7C8FE0F20FCF7FB
:1050500011F9010929F81610761CF6B2C4F894511A
:10506000FBF7BCFE7F1CFFB2802FE9D3BDE8F087C1
:1050700000002142B80A00200021022807D003289E
:105080000BD004280BD008280BD0002070474FF01D
:105090008042506A516200B27047044A02E0044AFA
:1050A00000E0044A1068116000B270472404004018
:1050B000240800402434014070B500252C460A2005
:1050C000FCF7D8F86D1CEDB20444022DF7D340F282
:1050D000FE30B4FBF0F00149087070BD07000020FD
:1050E00070470000134A10B51278012A04D1134BFF
:1050F000114A1B6812685A63114B4FF4E1521C1D90
:10510000002804DA1A6000F5E150206003E0226014
:10511000C0F5E15018600A4B0833181D002904DA65
:105120001A6001F5E151016010BD0260C1F5E15066
:10513000186010BD0700002098000020E402002045
:10514000340400402DE9F84F4FF48061FE48FBF72E
:10515000FFF8FE490A26DFF8F8830878DFF8F493B1
:10516000FD4DFE4FDFF8F8A30C244FF0640B04282C
:1051700011D005287ED00021FAA20846FFF7ECFCEA
:10518000F2480078002876D0012875D0022874D023
:10519000032873D071E2F5480094002102680423CB
:1051A0000846FFF79DFCF2480094042302680021A2
:1051B0001E20FFF795FCEF480094042302680021AD
:1051C0003C20FFF78DFCEC4800940423026800218A
:1051D0005A20FFF785FCE9A20A210020FFF7BCFC5A
:1051E000E848006810F1FF4F01D3E7A200E0E7A212
:1051F0000A213220FFF7B0FCE248006803F006FC09
:1052000001F040FF024603230A213C200094FFF7EF
:1052100067FCDF4F386810F1FF4F01D3DAA200E0DE
:10522000DAA20A215E20FFF797FC386803F0EEFB54
:1052300001F028FF024603230A216A200094FFF7A9
:105240004FFCD4A214210020FFF786FCC34F6868EE
:10525000B84217D3CCA214211E20FFF77DFC68684A
:1052600003F0F0FB02460423142124200094FFF7EE
:1052700037FC04E098E0F5E1F6E1F7E1F8E1686871
:10528000B8420ED2C1A214211E20FFF765FC686847
:1052900003F0D8FB02460423142124200094FFF7D6
:1052A0001FFCBEA214214220FFF756FCA868B8429A
:1052B00007D3B5A214216220FFF74EFCA868B842BC
:1052C00004D2B2A214216220FFF746FCB549A868B7
:1052D00003F038FC03F0B6FB0246042314216820D7
:1052E0000094FFF7FDFBB0A21E210020FFF734FC65
:1052F000DAF804005546B84211D31E21A2A208468E
:10530000FFF72AFC686803F09DFB024604231E2178
:1053100024200094FFF7E4FB6868B8420ED21E21F7
:105320009AA20846FFF718FC686803F08BFB024658
:1053300004231E2124200094FFF7D2FB9CA21E21EF
:105340004220FFF709FCA868B84207D38EA21E21AD
:105350006220FFF701FCA868B84204D28BA21E218C
:105360006220FFF7F9FB8F49A86803F0EBFB03F01D
:1053700069FB024604231E2168200094FFF7B0FB5E
:105380008DA228210020FFF7E7FB8D480078012837
:1053900006D08CA228214120FFF7DEFB8AA2C2E0C2
:1053A0008BA2F7E78AA2EFE2FFF7F6FB89A20A21B8
:1053B0000020FFF7D1FB75A20A215A20FFF7CCFB92
:1053C00086480094032302780A216420FFF788FBB3
:1053D00083A214210020FFF7BFFB6CA214215A20E6
:1053E000FFF7BAFB8148009403230278142164205C
:1053F000FFF776FB67A21E210020FFF7ADFB686870
:10540000B84211D31E2160A20846FFF7A5FB6868C9
:1054100003F018FB024604231E2124200094FFF70A
:105420005FFB6868B8420ED21E2158A20846FFF7FB
:1054300093FB686803F006FB024604231E21242028
:105440000094FFF74DFB55A21E214220FFF784FB7D
:10545000A868B84207D34CA21E216220FFF77CFB4C
:10546000A868B84204D249A21E216220FFF774FB4B
:105470004C49A86803F066FB03F0E4FA02460423F3
:105480001E2168200094FFF72BFB47A22821002053
:10549000FFF762FBDAF804005546B84211D33AA28E
:1054A00028211E20FFF758FB686803F0CBFA02465C
:1054B0000423282124200094FFF712FB6868B842D7
:1054C0000ED232A228211E20FFF746FB686803F0A7
:1054D000B9FA02460423282124200094FFF700FB98
:1054E00033A228214220FFF737FBA868B84207D330
:1054F00025A228216220FFF72FFBA868B84204D21A
:1055000022A228216220FFF727FB2649A86803F082
:1055100019FB03F097FA024604232821682000941F
:10552000FFF7DEFA32A232210020FFF715FB32A28C
:1055300032213620FFF710FB30A232214E20FFF738
:105540000BFB45465CE000001805002088000020A9
:1055500008000020200000209C090020000080801E
:10556000AC0900204D6F64653A000000EC0000209B
:10557000F0000020F4000020F80000204D6F766558
:10558000583A0000900000202D0000002B00000081
:10559000940000204C2D503A000000004C2D453A5C
:1055A0000000000000007A44522D503A0000000034
:1055B000522D453A000000004465746563743A005A
:1055C000BC0000204F464600454C4520000000002E
:1055D0004F4E20004D656469616E3A00E500002081
:1055E0005468726573686F6C643A0000E6000020CE
:1055F00043434420000000002E000000560000003D
:10560000B8F800100223B1FBFBF2322128200094ED
:10561000FFF766FA28880123B0FBF6F0B0FBF6F13D
:1056200006FB110232213E200094FFF759FA288828
:105630000123B0FBF6F106FB110232214620009453
:10564000FFF74EFA99F800004C4600283FF4AAAE46
:10565000AFF2900232216920FFF77EFA207800280D
:10566000F4D097E1D0A204E0D1A202E0D2A200E0FF
:10567000D3A200213220FFF76FFAD3480078012827
:105680001ED0D248007801281CD0D14800780128CB
:105690001AD0D0A20A210020FFF75EFAD048D1A28A
:1056A0004FF01401007801284FF000000ED0FFF7F2
:1056B00053FACE480068B84235D3AFF2341234E022
:1056C000CBA2E7E7CDA2E5E7CFA2E3E7FFF744FAF5
:1056D000C6480068B84202D3AFF2541201E0AFF2FC
:1056E000541214213220FFF737FAC048006803F043
:1056F0008DF901F0C7FC0246042314213C200094DC
:10570000FFF7EEF9B0480078012804D0AF480078E0
:10571000012802D034E0BFA200E0C0A21421622020
:10572000FFF71AFA2CE0AFF29C1214213220FFF797
:1057300013FAAE48006803F069F901F0A3FC0246D1
:10574000042314213C200094FFF7CAF9B5480068EF
:10575000B84202D3AFF2D01201E0AFF2D01214215E
:105760005E20FFF7F9F9AF48006803F04FF901F048
:1057700089FC0246032314216A200094FFF7B0F944
:10578000AFF2F0121E210020FFF7E6F96868B84278
:1057900014D3AFF20C221E210846FFF7DDF968682A
:1057A00080F0004003F04EF9024604231E2124201D
:1057B0000094FFF795F96868B8420FD2AFF234222F
:1057C0001E210846FFF7C8F9686803F03BF9024656
:1057D00004231E2124200094FFF782F9AFF2442213
:1057E0001E214220FFF7B8F9A868B84215D3AFF2DE
:1057F00068221E215E20FFF7AFF98B49A86803F0ED
:10580000A1F903F01FF9024604231E216820009429
:10581000FFF766F9A868B84212D2AFF290221E21B3
:105820005E20FFF799F98149A86803F08BF903F02E
:1058300009F9024604231E2168200094FFF750F95D
:10584000AFF29C2228210020FFF786F9DAF8040045
:105850005546B84214D3AFF2D02228211E20FFF7BC
:105860007BF9686880F0004003F0ECF802460423FE
:10587000282124200094FFF733F96868B8420FD23A
:10588000AFF2F82228211E20FFF766F9686803F0BE
:10589000D9F802460423282124200094FFF720F998
:1058A000AFF2F42228214220FFF756F9A868B84247
:1058B00015D3AFF22C3228215E20FFF74DF95A495B
:1058C000A86803F03FF903F0BDF80246042328213D
:1058D00068200094FFF704F9A868B84212D2AFF22A
:1058E000543228215E20FFF737F95049A86803F0A9
:1058F00029F903F0A7F80246042328216820009420
:10590000FFF7EEF836480078012847D0F0B30228B8
:1059100048D047A232210020FFF71EF9AFF228320B
:1059200032213E20FFF718F9AFF2303232215620F3
:10593000FFF712F9B8F800104546B1FBFBF202235D
:10594000322130200094FFF7CBF828880123B0FBE8
:10595000F6F0B0FBF6F106FB11023221462000946E
:10596000FFF7BEF828880123B0FBF6F106FB110211
:1059700032214E200094FFF7B3F899F80000002878
:105980003FF410ADAFF2C432322100E008E06920EC
:10599000FFF7E2F8BDE8F84FFFF734B826A2B9E701
:1059A00027A2B7E728A2B5E74E6F726D616C2000A1
:1059B00041766F6964202000466F6C6C6F77200021
:1059C000416C6F6E67202000010000200000002065
:1059D000020000204C494E4B494E472E2E2E00000F
:1059E0000700002053504545443A0000AC00002019
:1059F000426C7565746F6F746820000050533220DC
:105A00002020202020200000524F53202020202042
:105A10002020000050692F350000000050692F340D
:105A200000000000B000002000007AC400007A44AA
:105A30004254414E4B000000414B4D2020000000DD
:105A400044494646200000005354414E4B0000009C
:105A5000401EB0F1807F01D3012070474FF0E0215C
:105A60004861054AF02082F8140D00208861072063
:105A700008610020704700000FE000E001B50C480D
:105A80004FF47A710068B0FBF1F0FFF7E1FF0020FE
:105A90004FF0E02103E00A69D203FCD5401C009AD4
:105AA0009042F8D3086920F00100086108BD0000A9
:105AB0003C00002001B50B480B490068B0FBF1F039
:105AC000FFF7C6FF00204FF0E02103E00A69D20390
:105AD000FCD5401C009A9042F8D3086920F00100E0
